:100000000000012079240000A1240000A3240000A6
:10001000A5240000A7240000A9240000000000007F
:10002000000000000000000000000000AB24000001
:10003000AD24000000000000AF240000B124000047
:10004000B32400009510000079290000B3240000BB
:10005000B3240000B3240000D92A0000B324000018
:1000600071120000B3240000B3240000B324000088
:10007000B3240000B3240000B3240000B324000024
:10008000B3240000A92E0000B3240000B324000014
:10009000B3240000B3240000B3240000B324000004
:1000A000B3240000B3240000B3240000B3240000F4
:1000B000B3240000B3240000000000000000000092
:1000C000B3240000B3240000B3240000B3240000D4
:1000D000290E0000B3240000B3240000000000003B
:1000E0000000000000000000000000000000000010
:1000F0000000000000000000000000000000000000
:1001000000000000000000000000000000000000EF
:1001100000000000000000000000000000000000DF
:1001200000000000000000000000000000000000CF
:1001300000000000000000000000000000000000BF
:1001400000000000000000000000000000000000AF
:10015000000000000000000000000000000000009F
:10016000000000000000000000000000000000008F
:10017000000000000000000000000000000000007F
:10018000000000000000000000000000000000006F
:10019000000000000000000000000000000000005F
:1001A000000000000000000000000000000000004F
:1001B000000000000000000000000000000000003F
:1001C000000000000000000000000000000000002F
:1001D000000000000000000000000000000000001F
:1001E000000000000000000000000000000000000F
:1001F00000000000000000000000000000000000FF
:1002000010B5054C237833B9044B13B10448AFF350
:1002100000800123237010BD280200200000000090
:10022000E079000008B5034B1BB103490348AFF365
:10023000008008BD000000002C020020E0790000D2
:10024000154B002B08BF134B9D46A3F5803A0021A8
:100250008B460F461348144A121A03F0EDFC0F4B5D
:10026000002B00D098470E4B002B00D09847002061
:10027000002104000D000D48002802D00C48AFF307
:10028000008003F051FC2000290002F08DF803F0FB
:1002900037FC00BF00000800000001200000000043
:1002A0000000000028020020E407002000000000F9
:1002B00000000000BFF34F8F0549064BCA6802F4E7
:1002C000E0621343CB60BFF34F8F00BFFDE700BF79
:1002D00000ED00E00400FA05024B034A1B78DBB294
:1002E00013707047380000203A000020024B034A88
:1002F0001B78DBB213707047390000203A000020F1
:100300000D4B0222C3F880204FF48072C3F8802086
:100310000A4B4FF48102C3F80825A3F5F033084ACD
:10032000D3F80C1511700022C3F8FC2F03F5E0433D
:1003300001221A61704700BF00E100E000F00140B7
:1003400004000020074B1A7B42F004021A735A7B08
:1003500002F08F026FF303025A73034B1B6803B161
:10036000184770476C0200200C070020044A537B9A
:1003700003F00F01052984BF6FF303035373704724
:100380006C020020094B5A7B02F0700170291FBFDC
:10039000C2F30211013161F306125A731A7B02F0A3
:1003A000FB026FF304121A73FFF7AABF6C0200205E
:1003B000EFF3108372B6044A507AC0B283F3108808
:1003C000003018BF01207047840200205C4B5D495B
:1003D000F0B5002201202024C3F8FC0F4025C3F80B
:1003E0000022186181F801430224C1F880410C60A9
:1003F00081F808534FF48075C1F880510D604FF0BB
:10040000FF31C3F80421C3F82821C3F81421C3F82D
:100410001821C3F81021C3F80C21C3F80821C3F830
:100420000021C3F81C21C3F808134FF48161C3F8FD
:100430000413454991F90010C3F80C154C21C3F879
:1004400008154FF40071C3F81045C3F850164FF665
:10045000FF71C3F83445C3F83C153C49C3F838155F
:100460003B49097891FAA1F109BA61F0FF01C3F89B
:1004700024154FF0FC0C9CFAACF4E12594FA84FEB0
:1004800095FAA5F7A8213FBA91FAA1F636BA91FAE2
:10049000A1F424BAE4B23F0444EA0E6407F47F07EF
:1004A00036023C43B6B23443C3F81C459CFAACFC5C
:1004B0009CFA8CFC95FAA5F52DBA91FAA1F424BA10
:1004C00091FAA1F109BAC9B22D0441EA0C6105F40F
:1004D0007F0524022943A4B22143C3F820156FF0FD
:1004E000FF01C3F828158121C3F830151949C3F855
:1004F00014151949C3F818150921C3F8601503F537
:10050000E043042158601861C3F8101540F6080153
:10051000C3F80425C3F80825C3F80012D860C3F84F
:100520004021C3F84421C3F84821C3F84C21C3F843
:100530005021C3F854214FF40032C3F80423F0BD16
:100540000010004000E100E0040000202110010044
:100550007D020020060013002000040110B50E4C9F
:10056000D4F8FC3F0BB9FFF731FF0C4A136823F0B6
:10057000807323F0010343F08073136040F279121B
:100580000123C4F80433C4F80022D4F850250AB972
:10059000636010BD2361FCE7001000407417004049
:1005A000024AD2F80034002BFBD0704700E0014033
:1005B00070470000F8B5EFF3108272B6EFF31081C8
:1005C00072B61D4C637ADBB281F310881BB982F3DB
:1005D00010881846F8BD237A657A217867685B1B16
:1005E0000B4493FBF1F501FB1533DBB223255D438F
:1005F0007E1982F31088EEB17A5DB11C03F0F8FA2F
:1006000096F922300D4A785D5B421BB21380EFF3FE
:10061000108172B6EFF3108272B6637ADBB282F3A6
:10062000108813B981F31088D4E7637A013BDBB2F9
:100630006372F7E73046CDE7840200204E050020C4
:100640004FF010235A69013209BF4FF080535869A7
:10065000586900037047000038B58C1821F48051A8
:10066000A1421BD20E480223D0F80455C0F804352D
:10067000A14206D2FFF794FFC0F8081501F580519A
:10068000F6E7FFF78DFF0023C0F80435FFF788FF7A
:10069000C0F80455BDE83840FFF782BF38BD00BF41
:1006A00000E001400B68934210B514460FD0084893
:1006B0000123C0F80435FFF773FF0C60FFF770FFEC
:1006C0000023C0F80435BDE81040FFF769BF10BD36
:1006D00000E001400B685A1C10B515D001339BB2E5
:1006E00040F2FD3293420FD840F2FE30421E934258
:1006F0000BD0C21A03EB620292B251F822400134CD
:1007000014BF13461046F1E7002010BDF0B5BDF848
:100710001440DFF858C020124FF48075854026053C
:1007200093420BD9013B9BB251F82300054205D0FF
:1007300000EA0C07B742F3D1C0B211E0A3080133BD
:100740009A4211D904F00304022C51F8230008D076
:10075000032C04D0012CEFD1C0F3072000E0000EE1
:10076000F0BDC0F30740FBE7FF20F9E70000F0FF12
:1007700021F47F6121F00F010B68013308D04A6832
:10078000530005D522F0804204310248FFF78ABFAA
:10079000704700BF4402002021F47F6121F00F0167
:1007A0000B68013308D04A68002A05DA22F00042BB
:1007B00004310248FFF776BF704700BF44020020B3
:1007C00008B50348FFF73CFFA0EB813008BD00BF30
:1007D0004402002070B505460E460124A1B2284609
:1007E000FFF7EEFF0368B34206D143685A0003D413
:1007F000002B01DA083070BD0134092CEED1012440
:10080000A1B22846FFF7DCFF03689E4202D143688D
:10081000002BEFDB0134092CF2D14FF0FF30EAE777
:1008200070B521F47F6424F00F04D4E9003501335E
:10083000164616D04FF4805221461048FFF70CFFA1
:10084000324621460D48FFF72DFF6368013313D16F
:100850006A1C211D42F07F420848BDE87040FFF746
:1008600021BF04F1080304F5805219680131E1D178
:1008700004339342F9D1E3E770BD00BF4402002086
:1008800070B505460124A6B231462846FFF798FF09
:100890004368002B0ADB2846FFF792FF4FF0FF3238
:1008A00001462846BDE87040FFF7BABF0134092C65
:1008B000E9D170BD2DE9F0474FF0FF36DFF87490B5
:1008C0008246884601273446B9B25046FFF778FF82
:1008D0000368434505460DD14368002B0ADA00EA58
:1008E00009035B685A0005D501464FF0FF325046B8
:1008F000FFF796FF6A68531C23F07F43B34207D289
:10090000296829B1013111D0002AA4BF1E462C4606
:100910000137092FD8D1631C05D0214642465046E5
:10092000FFF77EFF08342046BDE8F0871E462C46C0
:10093000EEE700BF00F0FFFF10B509490948FFF7D7
:1009400049FF431C044609D105490648FFF7B2FF99
:100950000022044601460448FFF7A4FE204610BDCD
:10096000B9FD107746020020440200202DE9F3472C
:100970001F4680460C469246FFF7DEFF431C0646A4
:1009800007D12346FF22191B8F421FD903F8012BE1
:10099000F9E701464046FFF79DFE8146A0B1356864
:1009A0000135ADB22744AAEB040A04EB0A03BC42AA
:1009B0009BB20BD000932A464B4631464046FFF788
:1009C000A5FE04F8010BF0E70125EBE702B0BDE856
:1009D000F08700002DE9F74F83461D4891468A466F
:1009E0009846FFF7C5FE1B491948FFF763FF421CF5
:1009F000064628D00025071D2C460423AA0092B2E3
:100A00000DEB03015846FFF7B1FF019A0135531C66
:100A1000ADB204D039461048FFF744FE2C46B5F578
:100A2000407F07F10407E8D1224631460A480134E5
:100A3000FFF738FEA4B251460548FFF7ADFEA9F80E
:100A40000040A8F80040304603B0BDE8F08F00BF7A
:100A500046020020B9FD1077440200202DE9F04F36
:100A600085B01446814688461E46FFF765FF421C46
:100A7000054651D007680137BFB201464846ADF878
:100A80000C70FFF727FE8742ADF80E003FBF00F164
:100A9000804000F1FF30234F55F82030264434BF0A
:100AA0001F40002708F1FF381FFA86FBA34537D007
:100AB000BDF80EA0BDF80C200094534629464846C8
:100AC000FFF724FE18F8016FB04222D040F2FD3348
:100AD0009A4509D90DF10E0303AA4846FFF77AFF9C
:100AE000431C054618D000270123221203FA02F204
:100AF000BDF80E100C4846EA045646EA02223A4374
:100B000005EB8101FFF7CEFDBDF80E300133ADF8E6
:100B10000E300134A4B2C9E7002005B0BDE8F08F63
:100B20000120FAE700FF0F004402002013B502ACD9
:100B3000012304F8012D0A462146FFF78FFF02B07A
:100B400010BDF7B505460F46FFF7F6FE421C0446FA
:100B500020D0B7F5406F1DD801462846FFF7BAFDF3
:100B600040F2FD36ADF80400301A874210DD2368EC
:100B70000133ADF806300DF1060201AB2846FFF750
:100B800029FF431C04D001462846FFF7A3FD301A75
:100B900003B0F0BD4FF0FF30FAE7000038B505466E
:100BA0000C460548FFF76CFE2CB121462846BDE8EF
:100BB0003840FFF7C6BF38BD4602002093B28AB264
:100BC00001460148FFF7D2BE45020020064A074809
:100BD000137B03F0F7036FF3041300211373916089
:100BE0000422FFF7EBBF00BF6C0200208002002050
:100BF00093B28AB201460148FFF730BF4502002098
:100C00000A4681B20148FFF791BF00BF45020020AC
:100C1000064A137B03F0F9036FF300031373044BCD
:100C20000120FF2198705970FFF7EABF6C02002085
:100C3000800200204FF080430122DA67244B00211C
:100C40001970002840D0234BB0F5FA2F9A6028BFC6
:100C500040F6FF714FF07D0233BFC3F80815C3F8AB
:100C60000815B0FBF2F2010338BFB1FBF2F2C3F892
:100C700040254FF48032C3F80423C3F844230022F4
:100C8000C3F8402101221A60134BE02283F8242389
:100C90001022C3F884215A604FF080420F49D2F8E5
:100CA0000031003318BF01230B700123536002F59C
:100CB00000525360D360D36149F64043984205D94E
:100CC00020210748FFF76ABF064BE4E7704700BFE3
:100CD000900200200040024000E100E07F0200207E
:100CE0004502002000100140134B1B7863B14FF008
:100CF00080430022C3F8002101221A60D3F80021AA
:100D0000002AFBD001229A6788B10C4B4FF4803245
:100D1000C3F80823C3F8482301225A60084B102265
:100D2000C3F88420074B01221A609A607047064B73
:100D300001221A60F6E700BF7F0200200040024057
:100D400000E100E0002000400010014020BF40BF53
:100D500020BF704738B50446FFF76CFF054D2B7870
:100D600013B9FFF7F3FFFAE72046FFF7BDFF4FF097
:100D7000FF3038BD90020020F8B5064615461C46E7
:100D8000EFF3108772B61D4B18701D4BFF281A70B9
:100D900003D00A461B4901F005FEFF2D04D0224670
:100DA0001949284601F0FEFD184CFF23237087F3F4
:100DB00010880698164FFFF73DFF3B7813B923784C
:100DC000FF2B18D0FF2E02D0304601F057FEFF2D2A
:100DD00002D0284601F052FE0698FFF785FF2378DF
:100DE000FF2B18BF20784FF0FF03237014BF40B2D1
:100DF0004FF0FF30F8BDFFF7A9FFDEE73800002015
:100E000039000020D9020000ED0200003A00002065
:100E10009002002007B500230092FF22FFF7ACFFED
:100E200003B05DF804FB0000064BD3F840213AB153
:100E3000054A012111700022C3F84021D3F8403146
:100E4000704700BF004002409002002013B500230D
:100E5000002101220446C0E93E230160C0F81011C0
:100E6000C0F81411F0220430CDE9001102F0E4FEC4
:100E700001238DF807306B4603CB6B46C4F80001A5
:100E8000C4F8041103CB0C4BC4F8183103F104333C
:100E9000C4F81C3103F10433C4F8203140F60D636B
:100EA000C4F80801A4F8243120460F23C4F80C111B
:100EB00084F8263102B010BD0102030440790F38D6
:100EC00002288CBF0020012070470000074B4FF420
:100ED0008102C3F80825064A0123C2F8043302F54B
:100EE000E04253601361034A1370704700F0014001
:100EF000001000407E020020F8B5244D2B785BB234
:100F0000002B3FDD224B234ED3F80425224FB24263
:100F10001FBF0022C3F8002201221A611F4A0024C9
:100F200014700422C3F82C256522C3F800221C4A41
:100F3000C2F84C41D2F84C114FF4AA600121516023
:100F40001161D160C2F84C054FF40E70C2F844052F
:100F50001448C0F88875C0F88C254FF48102C0F899
:100F60004C49C0F80425C3F80813C3F80465D3F846
:100F700050252AB919602B78013B5BB22B70F8BD64
:100F80001961F8E7FFF7A2FFF5E700BF470200206D
:100F900000100040750500200C1100407E0200206A
:100FA0000080004000F001402DE9F0411E46334B27
:100FB000D3F8FC3F0446884617460BB9FFF706FAFC
:100FC000202F2F4D28BF20273A464146A81C02F06B
:100FD0000FFE2F70002E34D1A4F1FF035A425A4164
:100FE0006B78284F62F30003DBB2C3F34102013296
:100FF00062F34203FF2C6B7025D10323224E3B701A
:1010000000233D7833701D4B6DB2D3F8282594FA38
:10101000A4F424BA22F0FF02E4B21443C3F8284532
:1010200091221A4CC3F830254FF47F432380FFF7F9
:1010300063FFDFF85C8098F800304BB9FFF786FE5D
:10104000F9E70122CCE7002E0CBF0F230323D5E7DD
:1010500023881BB213F5807F08D13B785BB2ED1A71
:101060004FF6E373A3EBC5031BB22380034B81222E
:10107000C3F830253078BDE8F08100BF0010004093
:1010800075050020470200207C020020500500204A
:101090007E0200206F4BD3F82821012AF0B422D120
:1010A0000021C3F82811D3F828111A62D3F850256B
:1010B000032A40F08580D3F80824002A7DD14722F6
:1010C000C3F80022634BD3F80834042B0BD1624BD6
:1010D000624901225A640978D3F84425033102EBAE
:1010E0004112C3F844255B4BD3F80021012A09D1F2
:1010F0000022C3F80021D3F800115849C3F80415A1
:10110000C3F82C25D3F80C21012A54D10022C3F8AE
:101110000C21D3F80C210922C3F86025D3F85025FF
:10112000032A0BD0D3F85025022A07D0D3F8502534
:10113000042A03D0D3F85035092B3CD1454AD2F8C4
:101140000034002B7ED0D2F80834042B434B6BD0F4
:101150005878D2F80C14D2F80844C0F3410041EAA0
:1011600000413F4850F824408C4224D0D2F8084433
:1011700040F82410D2F8481583F82210EFF31084B9
:1011800072B6EFF3108672B636494D7A0F78EDB22B
:1011900086F31088BD4218D184F3108840F2791389
:1011A000C2F8003201231361D2F8082450F822302B
:1011B000013340F82230F0BC704740F279127FE7EB
:1011C00040F25B12C3F800228DE70A7A02EB82023A
:1011D000C2EBC2004A6802449A420CD0184603F19E
:1011E000200550F8046B42F8046BA842F9D1058839
:1011F0001580807890700A7A0D78501C90FBF5F27B
:1012000005FB1202D2B20A724A7A0132D2B24A7293
:1012100084F3108893F822209A7001221A705A7869
:1012200042F001025A70C6E71A78012A04D19B786D
:101230000D4A5B421BB213800C4B0122F0BC1A70AA
:10124000FFF744BE40F27913C2F800320123136164
:10125000B1E700BF001000400080004052050020B0
:101260004C02002084020020500500207C02002057
:10127000094BD3F84C21012A0DD15A601A61002282
:10128000C3F84421D3F84431044B1B780BB9FFF762
:1012900033BEFFF71BBE7047008000407C02002079
:1012A000074B084A1870D2F8243590FAA0F000BA1B
:1012B00023F0FF03C0B21843C2F82405FFF74EB96C
:1012C0007D0200200010004010B419B15DF8044BFD
:1012D000FFF76ABE08465DF8044B704710B50A4C2C
:1012E00023688342237B1BBF20606FF347132033A7
:1012F000237308BF237323680BB11B68984701F061
:10130000ABFD606010BD00BF6C0200200148FFF71C
:10131000E5BF00BF080000200148FFF7DFBF00BFA6
:101320001800002008B501F097FD024B5B68C01A59
:1013300008BD00BF6C02002008B50B4B1B78FF2BCB
:1013400004D00A48BDE80840FFF7C8BFFFF7EAFF2E
:10135000B0F5FA6F06D9064B1B7B5F2B94BF05488F
:101360000548EFE708BD00BF8002002028000020EC
:101370006C0200200800002030000020024B1B6897
:101380000BB15B68184770476C020020044B587B18
:1013900000F07000A0F1700358425841704700BF40
:1013A0006C02002008B5FFF7BDFF0246FFF7EEFF15
:1013B0004EF6602342F21071002814BF184608460A
:1013C000824204D90248BDE80840FFF787BF08BD44
:1013D00010000020044B05485A7B6FF306125A7325
:1013E00000221A60FFF77ABF6C0200201000002074
:1013F00008B5FEF7EBFF034B1878BDE80840FFF790
:101400004FBF00BF80020020431EDBB2FD2B10B592
:10141000044609D8054B1870FFF742FF002021460B
:10142000FFF7EEFB012010BD0020FCE7800200204A
:1014300010B5FEF7CBFF20B90E48BDE81040FFF70E
:101440004DBF0D4A0D4C137B43F010031373E3782B
:10145000642143F001030020E3702170FFF7D0FB0B
:101460002078FF2801D10648E7E7FFF7CDFF0028E5
:10147000F9D1E1E7300000206C020020800200205A
:1014800020000020037923F0080343EAC101017121
:101490007047C37823F0030343F00203C37070471F
:1014A00010B500210446017041708170C170017156
:1014B000417181711A22073002F0BEFB2046BDE85F
:1014C0001040FFF7E6BF037901F0070123F007039F
:1014D0000B4303717047000038B50B4D82712D78B6
:1014E0009DF8102042710446457081701946FFF73F
:1014F000EAFF9DF814102046FFF7C4FF237923F07C
:1015000010032371204638BD80020020C078C00837
:10151000192828BF1920704710B50E4B1A780A7089
:10152000CA785207044610D40846FFF7EFFFC21DE1
:10153000D2B2DB78D8070AD4A4F1FF00434243417A
:101540002046BDE81040FFF7BFBE2022F1E701238F
:10155000F6E700BF8002002070B5154D2B7BDB073E
:101560000646807803D5FF2820D1044602E080B9E2
:10157000104B5C7831462046FFF7CEFF0D4B5B7871
:10158000A3420DD16B7B60B95A1C62F303036B73EA
:1015900006E0FF28E9D03146FFF7BEFF0028E7D07C
:1015A00070BD6FF303036B730120F9E70020F7E7C9
:1015B0006C02002080020020044B1B7BC3F38003DD
:1015C0000BB1FFF7C9BF1846704700BF6C0200207F
:1015D00008B5C3785B0704D4FFF798FF0730C0B2A3
:1015E00008BD1920FAE7F0B58BB004460E46FEF7A9
:1015F000E1FF01AA0546234604F1200C17461868AE
:101600005968144603C4083363452246F7D11B7852
:1016100023709DF8073003F00303022B0BD13846EB
:10162000FFF774FF30703846FFF7D2FF431B584274
:1016300058410BB0F0BD0020FBE7C378192928BF43
:10164000192103F0070343EAC103C370704703790C
:101650005B090CBF07300020704708B503795B11A8
:10166000012B01D1C07908BD23B9073002F031FA4E
:10167000C0B2F8E70020F6E708B5FFF7EEFF00304C
:1016800018BF012008BD08B503795B11072B02D1F3
:10169000D0F8070008BD2BB9073002F017FA02F0A6
:1016A000C5F9F7E70020F5E703795B11052B02D1B7
:1016B000D0F80700704713B9073002F00EBA0020C7
:1016C000704708B503795B11022B02D1B0F907000E
:1016D00008BD23B9073002F0FCF900B2F8E700209A
:1016E000F6E708B503795B11032B02D1B0F80700C8
:1016F00008BD23B9073002F0ECF980B2F8E700200A
:10170000F6E738B504460D4619B1084603F022F84D
:10171000C1B22046FFF791FF237903F01F03237125
:101720002046FFF7F3FE29460246E01D03F02CF8A1
:101730002046FFF7EBFE20440023C371204638BD4E
:1017400007B50B4B1A78FF2A0ED103230021CDE9F0
:1017500000310848FFF7C0FE0749FFF7D2FF03B08A
:101760005DF804EBFFF7F8BE03B05DF804FB00BFC3
:1017700080020020E90600206276000010B50C46C9
:1017800001210246FFF759FF1379D47103F01F03BB
:1017900043F020031371104610BD38B504460D46C2
:1017A0000521FFF74AFF2379C4F8075063F01F03B0
:1017B0002371E272204638BD10B50C460421024662
:1017C000FFF73BFF1379C2F8074003F01F0363F0F4
:1017D0005F031371104610BD10B50C46022102467E
:1017E000FFF72BFF1379A2F8074003F01F0343F024
:1017F00040031371104610BD2DE9F047164E174FE8
:1018000010254FF0000AB0466B10EA07F35C4CBF9E
:1018100003F00F031B09072B0ED818F803A0384656
:10182000514600F001FE0135F22DEDD10C490B4877
:10183000BDE8F04700F002BE053BDCB24FF0000906
:101840005146384609F1010900F0EEFD5FFA89F3CF
:101850009C42F5D8E7E700BF507500004007002024
:10186000BF7400007047FFF7A7BE000008B5084B23
:101870001B784370037923F0070343F001030371DE
:101880000246FFF7FFFDBDE808401046FFF794BE93
:101890008002002037B50546FFF744FD16230446B5
:1018A0000093FF220323019500210548FFF714FE52
:1018B0002146FFF781FF03B0BDE83040FFF77CBE53
:1018C000E906002037B5CDE9001300231946044688
:1018D000154602460648FFF7FFFD0649FF2C18BFD4
:1018E0002946FFF70EFF03B0BDE83040FFF764BEA6
:1018F000E9060020C674000073B50D46164604467E
:1019000010B30B2301920093FF22032300210F4801
:10191000FFF7E2FD2146FFF7F4FEFFF74DFE044618
:101920007DB10C23FF220093002103230196074879
:10193000FFF7D2FD2946FFF7E4FEFFF73DFE044026
:10194000E4B2204602B070BD0124E9E7E9060020B8
:1019500010B5002205490648FFF7CEFF0023054ACF
:1019600006211846BDE81040FFF7ACBFA874000080
:10197000AC74000062760000024B034AC3F80026F4
:1019800001F0A6BA000001403546526E30B50D4652
:1019900085B01F49044601F029F92B795B11013B01
:1019A0002846062B05D8DFE803F00D1C241C24274D
:1019B0002A00FFF74CFE0146204601F0BBF9204605
:1019C00005B030BDFFF749FE0A22014601A801F02B
:1019D0002CF901A9204601F0A5F901A801F0C1F8F0
:1019E000EDE7FFF76EFE01460A2201A801F02EF98D
:1019F000EFE7FFF776FEF6E7FFF73EFEF3E7FFF7C8
:101A000042FE0222014601A801F09EF9E1E700BF73
:101A1000B974000030B50379DB068DB0044644D5B7
:101A20000A22417803A801F000F903A9684601F0F1
:101A30006FF91F49684601F0C4F90A220546A179E9
:101A400006A801F0F2F806A9284601F0AEF91849F7
:101A500001F0B7F92146054609A8FFF797FF09A944
:101A6000284601F0A2F9134901F0ABF901461248EA
:101A700001F03FF909A801F074F806A801F071F827
:101A8000684601F06EF803A801F06BF80B4909A84D
:101A900001F0ACF8084909A801F087F901460848A7
:101AA00000F0D6FC09A801F05CF80DB030BD00BF15
:101AB000CC740000CE74000010070020D074000029
:101AC000400700202DE9FF47554C0DF10F0120463E
:101AD000FFF789FD00285CD02046FFF717FD51492C
:101AE00022794B7B94F802A06579677894F800E03E
:101AF00043F080034B734C4B93F800C0D44502F085
:101B000007080E46994662D120440023C37113078B
:101B100017D5464B214604F1200E184651F8049B78
:101B200043F8049B7145F9D122F018020978197025
:101B300042F01002027180F801C087703B48FFF745
:101B40003BFD2379DC063ED4B8F1030F3BD134488A
:101B5000FFF7B4F90146E0B9042D1AD0182D0CD1C5
:101B600019230190009339464346FF222F48FFF77F
:101B7000B3FC0121FFF702FE1EE0192D0CD1337BCF
:101B8000180706D561F3C30325483373FFF765FDD6
:101B9000B07304B0BDE8F0871E2DFAD01D2D0ED114
:101BA0001F2301900093FF2243462048FFF794FC37
:101BB0006FF0FF01FFF710FEFFF7CEFCE9E700F042
:101BC00013F90028E5D11648FFF724FFE1E7BAF141
:101BD000FF0FDED1B8F1030F1DD10B7B590701D5E3
:101BE000072DD6D0142DD4D199F801307345D0D11A
:101BF00001F032F9C0F3090001F048F91523002281
:101C0000CDE9003239460323FF220848FFF764FC80
:101C100099F80110AEE75B787345BAD1D3E700BFFE
:101C2000C80600206C02002080020020E906002087
:101C3000084B1B7BDB0610B50AD50624FEF7B8FB64
:101C400030B1013C14F0FF0402D0FFF73BFFF5E791
:101C500010BD00BF6C02002008B5FFF78FFBBDE888
:101C60000840FFF7E5BF0000F8B5054601F0F4F8BD
:101C70000A4E074601F0F0F8C01BA84203D315B185
:101C800000242046F8BDFFF7E7FF347BC4F380044F
:101C9000FFF772FE002CEDD0F3E700BF6C020020CE
:101CA00008B5FFF769FEBDE80840FFF7D5BF38B5B6
:101CB000054601F0D1F8044601F0CEF8001BA84219
:101CC00002D2FFF7EDFFF7E738BD00002DE9F8433A
:101CD000114C80468946164601F0BEF8237923F060
:101CE000070343F0070307462371002501F0B4F80A
:101CF000C01B40450CD25DB9FFF7D2FF237903F03A
:101D000007039945F2D16579AB1B5D425D41EDE773
:101D10002846BDE8F88300BFC8060020F7B50026B6
:101D20000F250323FF22CDE9005604460F46FFF797
:101D3000D3FB0F49FFF7E5FC02212046FFF77DFCAE
:101D40002379267203F01F0363F03F0323710123FD
:101D5000E3712046FFF730FC47B92A4603214FF4D0
:101D6000FA6003B0BDE8F040FFF7B0BF03B0F0BDCC
:101D70006276000037B5124D00212846FFF7CEFFEE
:101D80000023104A1121FF20FFF79CFD06240021AB
:101D9000FF22CDE9004103232846FFF79DFB0A4BB4
:101DA0005978FFF7EBFCFFF75EFD224603214FF465
:101DB000FA60FFF78BFFFFF7CBFD03B030BD00BF2C
:101DC000E9060020627600008002002010B5054C74
:101DD00063789B0705D4FFF7CDFF637843F00303D7
:101DE000637010BD4802002013B52648417844793D
:101DF000002944D10D2C01D1FEF75CFA1B2C0ED02A
:101E0000062C10D1C37963B1A3F14D025342534163
:101E10001D48012240F203110370FEF7E9FE012480
:101E200023E00123F4E7132C02D1FFF7A3FFF6E729
:101E3000122C03D10846FFF72DFDF0E7022C0CD140
:101E4000CDE900410323FF221048FFF745FB10496D
:101E5000FFF7B2FCFFF707FDE1E7012C08D10D4ABF
:101E60001AB1FFF721FCAFF30080204602B010BD8D
:101E70000A2CD4D01C2C14BF00240124F5E71A2C02
:101E8000F9E700BFC806002048020020E90600204C
:101E9000FF020302000000002DE9F74F99463D4B79
:101EA0009DF830600546187BC0F3800488461746CD
:101EB0009A462CBB00F0D0FF8346204642F20F74B6
:101EC0009AF80C305B0716D4A84216D2A0420BD960
:101ED0002C1AB8F1000F28D0631EB3F5F97F11D882
:101EE0002846FFF7E4FE08E0FFF7DAFE00F0B4FF53
:101EF000A0EB0B00E4E7A842EAD36FF0010536E05F
:101F00002C46E6E700212023CDE90031FF22032300
:101F10002148FFF7E1FA4FF4FA71FFF74DFCFFF7A4
:101F2000A2FC4FF4FA70FFF7C2FEFEF7E9F9FF2FAB
:101F300027D0FF2E1FD000949DF8343032464946FA
:101F40003846FEF719FF0546FFF752FAB8F1000FC1
:101F50000DD000212123CDE90031FF2203230E48BB
:101F6000FFF7BAFA2146FFF727FCFFF77CFC28466B
:101F700003B0BDE8F08F224649463846FEF74AFFD7
:101F8000E1E7FF2E03D12046FEF7E4FEDBE76FF02A
:101F90000105D9E76C020020E906002007B5FF2300
:101FA000CDE900331A46FFF777FF03B05DF804FB75
:101FB0002DE9F04198B004460FA81D460F4616467D
:101FC000FFF76EFA02221E998DF841500FA88DF886
:101FD0003E708DF84260FFF7E0FB0121FFF746FC01
:101FE0000A22394603A800F031FE03A906A800F032
:101FF0008FFE714906A800F0E4FE0A22074631462A
:1020000009A800F023FE09A9384600F0CEFE6A496F
:1020100000F0D7FE022207461E990CA800F094FE9D
:102020000CA9384600F0C1FE644900F0CAFE014622
:10203000684600F06DFE0CA800F093FD09A800F0C2
:1020400090FD06A800F08DFD03A800F08AFD5C4914
:102050000CA800F0CBFD69460CA800F0A6FE0146D6
:10206000584800F0F5F90CA800F07BFD00F0F4FEF4
:102070002A460121074640F2DC50FFF727FE00F018
:10208000EBFE69468046504800F0C4FE0546002835
:102090003AD04E4909A800F0A9FD0A22314606A807
:1020A00000F0D4FD06A909A800F07FFE484900F021
:1020B00088FE0A220546A8EB07010CA800F0D8FD0F
:1020C0000CA9284600F071FE424900F07AFE014654
:1020D0003C4800F0BDF90CA800F043FD06A800F054
:1020E00040FD09A800F03DFD3B4B00212160186830
:1020F000FFF754FF3949344800F01CFE684600F0F1
:1021000030FD18B0BDE8F081236830490133236009
:10211000334B5A7B60F303025A7309A800F066FD43
:102120000A22314606A800F091FD06A909A800F090
:102130003CFE2C4900F045FE0A22064621680CA808
:1021400000F084FD0CA9304600F02FFE01461D482A
:1021500000F07EF90CA800F004FD06A800F001FDD7
:1021600009A800F0FEFC2368042BC7DD25601A4C8B
:102170001D490CA800F03AFD4FF47A730A22216839
:10218000B1FBF3F109A800F085FD09A90CA800F046
:102190000CFE164900F015FE01460A4800F058F9F9
:1021A00009A800F0DEFC0CA800F0DBFC2946206842
:1021B000FFF7F4FEA2E700BFCC740000CE7400006D
:1021C000DB7400004007002010070020E4740000CA
:1021D000E9740000017500003C00002062760000F8
:1021E0006C020020057500001F7500004B75000093
:1021F00073B540F2DC514FF47A7000F0A8FC07EEA2
:10220000900A154E154D164CF8EEE77A0023CDEDE9
:10221000007A1A4619463046FFF7CAFE294620467C
:1022200000F020F940F2DC514FF47A7000F08FFC9E
:1022300007EE900AF8EEE77A002319463046CDED16
:10224000007A0122FFF7B4FE2946204602B0BDE81D
:10225000704000F007B900BF98050020C975000064
:102260004007002038B51448FEF7F0FD134B142248
:102270001A70134A5A60EFF3108272B600241C726F
:102280005C7282F310880F4D0F48FFF709F90F4871
:10229000FFF706F92846FFF703F9AC716C710C4C97
:1022A0000C49204600F0A2FC20460B4A0B49BDE831
:1022B000384000F001BF00BFA005002084020020CC
:1022C000910200201C070020C8060020E90600201B
:1022D000100700206276000000000020632B000041
:1022E0004FF08043002210B5C3F8002101221A608C
:1022F000D3F80021002AFBD001249C67074B084833
:10230000C3F84045A3F5E0334FF4E1315C60DC6095
:10231000DC6100F0EDF9204610BD00BF00E0014097
:1023200040070020194A38B5194CC2F80046194A2E
:102330000AB1AFF30080FFF7D3FF0546FFF75CFA61
:1023400015B9FFF719FBFCE7134B5A786FF34102FD
:102350005A70124B0BB1AFF30080012240F203110F
:102360000D48FEF72BFCFF210120FEF749FCFFF78B
:1023700031F80B4B0B4A1A600020FFF775FCFFF792
:1023800071FA024BC3F8004638BD00BF000001409F
:102390003546526E00000000480200200000000098
:1023A0000C070020CD1D000008B500F0F3FDFFF77D
:1023B000B9FF054CFFF774FCFFF71AFF002CF9D0AA
:1023C000AFF30080F6E700BF000000002DE9F04108
:1023D00006460D4601EB02080C464445A4EB0507F2
:1023E00007D0336814F8011B1B6830469847002853
:1023F000F3D13846BDE8F08170B5044608460D4675
:1024000002F0A8F923680246294620465B68BDE829
:102410007040184709B1FFF7EFBF084670470368DF
:102420008A685B680968184703681B6818470000DA
:102430000149FFF7E1BF00BF6076000038B50546EF
:10244000FFF7E8FF04462846FFF7F2FF204438BDB7
:1024500038B50546FFF7E3FF04462846FFF7E8FFD7
:10246000204438BD38B50546FFF7D4FF044628465A
:10247000FFF7DEFF204438BD0649074A074B9B1A89
:1024800003DD043BC858D050FBDC00F037F8FDF703
:10249000D7FE0000EC790000000000202802002098
:1024A000FEE7FEE7FEE7FEE7FEE7FEE7FEE7FEE704
:1024B000FEE7FEE7044B1868421C04BF034B187884
:1024C000831F58425841704730010010E00F00F060
:1024D000074B1B78062B09D1064B1B68C3F303136C
:1024E000033B032B02D8044AD05C7047002070479E
:1024F000E00F00F0E80F00F06776000008B5FFF786
:10250000D9FF28B1654B664A1B68C3F304231360E7
:10251000FFF7DEFF10B1634B634A1A60FFF7CAFF93
:1025200028B1624B624A1B68C3F342331360FFF762
:10253000CFFF20B15F4AD36823F08073D360FFF7E9
:10254000B9FF40B14FF080430022C3F80C21C3F81B
:102550001021C3F83825FFF7BBFF10B1564B0322FB
:102560001A60FFF7B5FF40B1544B05221A600122F3
:102570009A6700229A603F225A60514B1A68511C98
:102580000BBF504B504B1A781B6802BF08331B68B7
:10259000C3F30313062A4DD1033B032B03D84B4A45
:1025A000D35C002B46D04FF08052494BD2F8041434
:1025B000C3F82015D2F80814C3F82415D2F80C1467
:1025C000C3F82815D2F81014C3F82C15D2F8141437
:1025D000C3F83015D2F81814C3F83415D2F81C1407
:1025E000C3F84015D2F82014C3F84415D2F82414C7
:1025F000C3F84815D2F82814C3F84C15D2F82C1497
:10260000C3F85015D2F83014C3F85415D2F8341466
:10261000C3F86015D2F83814C3F86415D2F83C1426
:10262000C3F86815D2F84014C3F86C15D2F84424E6
:10263000C3F87025FFF73EFF28B1264B264A1B68DA
:1026400003F04F031360FFF735FF48B14FF08043AD
:10265000D3F80024D20744BF6FF00102C3F800246E
:10266000174B1B68062B09D1174B1B68033B022B2A
:1026700081BF1A4A136843F480631360184AD2F882
:10268000883043F47003C2F88830BFF34F8FBFF334
:102690006F8F144B144A1A6008BD00BF240300104A
:1026A0004035014074C007400DF0ADBA440200103F
:1026B0003C050040F0ED00E0A00500401056004051
:1026C00030010010E00F00F03401001063760000CC
:1026D00000C0004058020010E40E00403C170040CB
:1026E00000ED00E0400000200090D0030120704782
:1026F00003681322DB69184770470369C3F81C1588
:102700000369D3F81C21002AFBD00022C3F81C2146
:102710000120704710B490F95C30144C5909012223
:10272000203103F01F0302FA03F344F82130036958
:102730005DF8044B0421C3F8081303695A60036968
:10274000DA6003690022C3F8002502694FF0FF3305
:10275000C2F80C350269C2F814350269C2F80835AE
:1027600002691430C2F8103500F086BC00E100E0C8
:10277000143000F093BC143000F096BC143000F01C
:102780007FBC0000036990F85E2010B5C3F80C25EB
:10279000036990F85D20C3F8142590F8612003695F
:1027A000012A01BF90F85F40C3F81045036990F813
:1027B000604006BFC3F8084503690022B1F5966F73
:1027C000C3F86C2569D9B1F5166F69D9B1F5965F73
:1027D00069D9B1F5165F68D9B1F5615F67D9B1F50F
:1027E000964F66D9B1F5E14F65D9B1F5164F64D969
:1027F000B1F5614F64D9B1F5963F64D9B1F5E13FC8
:1028000063D9B1F5613F63D9364B994263D9B1F5CC
:10281000E12F63D9B1F5612F94BF4FF070634FF092
:1028200080530269C2F8243503690422C3F80025E5
:1028300001690023C1F808310169C1F81C3101693F
:1028400001230B6001698B600169C1F8042390F9D1
:102850005C20510902F01F0293406031224A42F885
:10286000213090F95C30002BBDBF03F00F0302F65E
:10287000FC32D2189B18B5BF60236022137683F810
:10288000002390F95C300122590903F01F0302FA7A
:1028900003F3154A42F8213010BD4FF49E23C0E7E0
:1028A0004FF41D23BDE7114BBBE7114BB9E7114BAB
:1028B000B7E7114BB5E7114BB3E74FF41D03B0E792
:1028C0004FF46B03ADE70E4BABE74FF0EB73A8E7AC
:1028D0004FF06C73A5E74FF08063A2E74FF0E86319
:1028E0009FE700BF90D0030000E100E000B01300BC
:1028F0000050270000F03A0000A04E0000C0750014
:1029000000903A012DE9F0411E4600254FF47A73FC
:10291000C0E901530D4B044640F8143B1746884666
:1029200000F096FB0A4AC4F8108084F85C7052F8F4
:10293000263084F85D309DF8183052F8233084F842
:102940005E3084F861502046BDE8F0817476000066
:10295000F875000010B50369D3F8082104464AB1A0
:10296000D3F818151430C9B200F07BFB236900229C
:10297000C3F8082110BD00000148FFF7EBBF00BFFE
:102980004007002007B519230093022218230349AA
:102990000348FFF7B7FF03B05DF804FB00200040D9
:1029A00040070020F8B52F4F0D46396806461446FB
:1029B00099B920222C4801F03FF92C4B4FF0FF32FF
:1029C0001A605A602A4B4022C3F88020C3F8802145
:1029D00083F806231A6001233B60192E38D8032C94
:1029E00005D0042C35D0022C32D1032400E002247F
:1029F000204B1E4A53F82630002116468856471CA5
:102A000029D1194A735442F821508A0002F18042B8
:102A100002F5C0421B02D2F8100520F4473020F422
:102A20004070C2F81005D2F8100503F4F85343EAD9
:102A300004430343C2F81035D2F8103543F00103C4
:102A4000C2F81035012303FA01F10B4BC3F804134C
:102A5000F8BD0124CCE79842D3D001310829CDD16B
:102A6000F6E700BFCC070020A4070020C407002021
:102A700000E100E0F875000000600040192822D84D
:102A8000114B124A53F8201000239856884217D150
:102A9000FF21D1540E4A002142F823109A0002F17E
:102AA000804202F5C042D2F8101521F00101C2F8AF
:102AB0001015012202FA03F3064AC2F808337047E0
:102AC0000133082BE1D17047F8750000C4070020DE
:102AD000A4070020006000402DE9F341134E144F7D
:102AE000DFF85080002505F1805404F5C254A4009D
:102AF0002368012B14D1D6F80423AB4013420FD026
:102B0000EB57013307D004F14043A3F5C24353F818
:102B1000083003B198470023236023680193019B89
:102B20000135082DDFD102B0BDE8F0810060004022
:102B3000C4070020A407002010B5044628B101F006
:102B40008BFD90FBF4F303FB1404204610BD884278
:102B500010B5044603DA081AFFF7EEFF04442046D6
:102B600010BD10B50446006801F028F8204610BDDD
:102B700010B50446006808B101F020F80023236076
:102B8000C4E9013310BD38B504460D460068013173
:102B900001F096FD10B1C4E90005012038BD0368BD
:102BA00010B5044623B143688B4201D3012010BD08
:102BB0002046FFF7E8FF0028F9D0A368002BF5D1E5
:102BC00022681370F2E770B50E46114604461546AA
:102BD000FFF7E5FF20B92046FFF7CAFF204670BD8A
:102BE000A5603146206801F0ADFDF7E738B5002358
:102BF0000446C0E9003383600D4639B1084601F050
:102C0000A9FD294602462046FFF7DDFF204638BDD4
:102C100038B5054608460C4601F09CFD21460246A3
:102C20002846BDE83840FFF7CEBF1FB50446002355
:102C3000C4E90033A360084601A902F0B1FC2046B4
:102C400001A9FFF7E5FF204604B010BD10B504460A
:102C50008AB00023C4E90033A360084601A900F04C
:102C60009FFF204601A9FFF7D3FF20460AB010BD01
:102C700010B504468AB00023C4E90033A3600846B7
:102C800001A900F026F9204601A9FFF7C1FF20465F
:102C90000AB010BD10B504468AB00023C4E9003361
:102CA000A360084601A900F04CF9204601A9FFF7EE
:102CB000AFFF20460AB010BD38B5054600680C4687
:102CC00068B16A688B689A4207D3096801F03AFDD7
:102CD000A368AB600023A36038BD00F06FFF2368DA
:102CE0002B6063686B60A368AB600023C4E90033AA
:102CF000F1E7884210B50B46044604D0096821B1BB
:102D00009A68FFF760FF204610BDFFF731FFFAE732
:102D100010B500230446C0E900338360FFF7E9FFE4
:102D2000204610BD884210B5044601D0FFF7C4FF0D
:102D3000204610BD10B5044619B1FFF769FF2046C3
:102D400010BDFFF715FFFAE770B5044600208CB000
:102D5000C4E90000A060951C084616466DB200F05C
:102D600015FB03AB00932A46334600F061F8014699
:102D70002046FFF7DFFF20460CB070BD70B505465A
:102D80000E4609B9002070BD6AB18468144421461A
:102D9000FFF705FF0028F5D02868AB6831461844D6
:102DA00001F0D0FCAC600120EDE710B58A6809683D
:102DB0000446FFF7E3FF10B92046FFF7D9FE20468F
:102DC00010BD38B504460D4621B92046FFF7D0FEA8
:102DD000204638BD084601F0BDFC29460246204683
:102DE000FFF7CCFF0028F0D0F2E703680A46096835
:102DF00063B141B9806860B118787047906840B19C
:102E0000087840427047184601F092BC0029F5D17D
:102E10000846704708B582688B689A4205D1FFF76B
:102E2000E4FFB0FA80F0400908BD0020FCE7000094
:102E300030B5044687B00D46064901A801F058FC9C
:102E400022462B4601A90A9801F052FC0A9807B0C5
:102E500030BD00BF9C7600000A4B19680A4B30B5A4
:102E6000D3F804050C060D0A44EA00024FF47A7107
:102E70002B46A2FB014501FB0355E00B40EA454010
:102E800030BD00BFD00700200010014038B5044617
:102E900048B1FFF7E1FF054600F01AF8FFF7DCFF45
:102EA000401BA042F8D338BD074B0022C3F80421D1
:102EB00082B0D3F80431054A0193019B13680133B2
:102EC000DBB2136002B0704700100140D007002051
:102ED0007047F0B58BB041B3931E222B2FD80A2A2E
:102EE00006D1002804DA4442012601AB1D4610E059
:102EF00004460026F9E7B4FBF2F002FB1047092F65
:102F0000044603F10103F8B294BF3030573003F8A0
:102F1000010C002CEFD1AB42EDD04EB12D204A1C5C
:102F20000870AB4206D80023137008460BB0F0BD02
:102F30000A46F6E713F8010D02F8010BF1E700214C
:102F4000F3E770B58AB061B1931E222B20D801AB94
:102F50001D4648B9AB4207D00A46AB4213D80023FE
:102F6000137008460AB070BDB0FBF2F402FB140601
:102F7000092E204603F10103F4B294BF30345734D4
:102F800003F8014CE5E713F8010D02F8010BE4E743
:102F90000021E6E72A4BE02283F811234FF40032A8
:102FA000C3F880211A604FF080430122C3F818252E
:102FB0009A6003F588330021C3F808150221C3F88D
:102FC0000413C3F844131A604FF01023D3F80022FF
:102FD000002A03DBD3F80432002B2FDA194B01222D
:102FE000C3F80425D3F80024002AFBD04FF01022A8
:102FF0001521C2F80012D3F80024002AFBD04FF0AC
:1030000010231522C3F804220E4B1A46D3F80014DD
:103010000029FBD00021C3F80415D2F80034002B9E
:10302000FBD0BFF34F8F0849084BCA6802F4E06237
:103030001343CB60BFF34F8F00BFFDE7704700BF66
:1030400000E100E000E0014000ED00E00400FA05CE
:1030500008B54022002100F0EFFD0022C0E9102257
:1030600008BD026C10B5531C446C03F03F039C4236
:103070001CBF8154036410BD0023C0E910337047A6
:10308000D0E9102393421FBFC25C013303F03F031A
:10309000436414BF10464FF0FF307047D0E9103042
:1030A000181A48BF40307047D0E91023934214BF2C
:1030B000C05C4FF0FF3070470B460146184600F0E9
:1030C00011BD000081F0004102E000BF83F0004329
:1030D00030B54FEA41044FEA430594EA050F08BFB3
:1030E00090EA020F1FBF54EA000C55EA020C7FEA77
:1030F000645C7FEA655C00F0E2804FEA5454D4EBF4
:103100005555B8BF6D420CDD2C4480EA020281EABD
:10311000030382EA000083EA010180EA020281EAF5
:103120000303362D88BF30BD11F0004F4FEA013147
:103130004FF4801C4CEA113102D0404261EB410156
:1031400013F0004F4FEA03334CEA133302D05242DC
:1031500063EB430394EA050F00F0A780A4F1010498
:10316000D5F1200E0DDB02FA0EFC22FA05F28018D2
:1031700041F1000103FA0EF2801843FA05F35941B8
:103180000EE0A5F120050EF1200E012A03FA0EFC37
:1031900028BF4CF0020C43FA05F3C01851EBE37161
:1031A00001F0004507D54FF0000EDCF1000C7EEB7E
:1031B00000006EEB0101B1F5801F1BD3B1F5001FBC
:1031C0000CD349085FEA30004FEA3C0C04F10104DB
:1031D0004FEA445212F5800F80F09A80BCF1004F04
:1031E00008BF5FEA500C50F1000041EB045141EA86
:1031F000050130BD5FEA4C0C404141EB010111F487
:10320000801FA4F10104E9D191F0000F04BF014631
:103210000020B1FA81F308BF2033A3F10B03B3F10F
:1032200020020CDA0C3208DD02F1140CC2F10C029F
:1032300001FA0CF021FA02F10CE002F11402D8BFFD
:10324000C2F1200C01FA02F120FA0CFCDCBF41EAC9
:103250000C019040E41AA2BF01EB0451294330BD98
:103260006FEA04041F3C1CDA0C340EDC04F1140475
:10327000C4F1200220FA04F001FA02F340EA03004C
:1032800021FA04F345EA030130BDC4F10C04C4F192
:10329000200220FA02F001FA04F340EA0300294672
:1032A00030BD21FA04F0294630BD94F0000F83F4BC
:1032B000801306BF81F480110134013D4EE77FEA9F
:1032C000645C18BF7FEA655C29D094EA050F08BFEB
:1032D00090EA020F05D054EA000C04BF19461046CC
:1032E00030BD91EA030F1EBF0021002030BD5FEA10
:1032F000545C05D14000494128BF41F0004130BD38
:1033000014F580043CBF01F5801130BD01F000458B
:1033100045F0FE4141F470014FF0000030BD7FEAFE
:10332000645C1ABF194610467FEA655C1CBF0B46F9
:10333000024650EA013406BF52EA033591EA030F10
:1033400041F4002130BD00BF90F0000F04BF002108
:10335000704730B54FF4806404F132044FF000053B
:103360004FF0000150E700BF90F0000F04BF0021B4
:10337000704730B54FF4806404F1320410F000451A
:1033800048BF40424FF000013EE700BF42004FEA15
:10339000E2014FEA31014FEA02701FBF12F07F4392
:1033A00093F07F4F81F06051704732F07F4208BF49
:1033B000704793F07F4F04BF41F40021704730B550
:1033C0004FF4607401F0004521F000411CE700BF9C
:1033D00050EA010208BF704730B54FF000050AE01F
:1033E00050EA010208BF704730B511F0004502D520
:1033F000404261EB41014FF4806404F132045FEA22
:10340000915C3FF4D8AE4FF003025FEADC0C18BFCA
:1034100003325FEADC0C18BF033202EBDC02C2F1BC
:10342000200300FA03FC20FA02F001FA03FE40EA4E
:103430000E0021FA02F11444BDE600BF70B54FF052
:10344000FF0C4CF4E06C1CEA11541DBF1CEA135530
:1034500094EA0C0F95EA0C0F00F0DEF82C4481EA98
:10346000030621EA4C5123EA4C5350EA013518BFB8
:1034700052EA033541F4801143F4801338D0A0FBA5
:1034800002CE4FF00005E1FB02E506F00042E0FB52
:1034900003E54FF00006E1FB03569CF0000F18BF58
:1034A0004EF0010EA4F1FF04B6F5007F64F5407400
:1034B00004D25FEA4E0E6D4146EB060642EAC62193
:1034C00041EA55514FEAC52040EA5E504FEACE2E00
:1034D000B4F1FD0C88BFBCF5E06F1ED8BEF1004F03
:1034E00008BF5FEA500E50F1000041EB045170BD7F
:1034F00006F0004646EA010140EA020081EA0301C3
:10350000B4EB5C04C2BFD4EB0C0541EA045170BDBE
:1035100041F480114FF0000E013C00F3AB8014F138
:10352000360FDEBF002001F0004170BDC4F1000481
:10353000203C35DA0C341BDC04F11404C4F1200502
:1035400000FA05F320FA04F001FA05F240EA02005D
:1035500001F0004221F0004110EBD37021FA04F693
:1035600042EB06015EEA430E08BF20EAD37070BD4D
:10357000C4F10C04C4F1200500FA04F320FA05F0AC
:1035800001FA04F240EA020001F0004110EBD370AE
:1035900041F100015EEA430E08BF20EAD37070BD1E
:1035A000C4F1200500FA05F24EEA020E20FA04F3F7
:1035B00001FA05F243EA020321FA04F001F00041A6
:1035C00021FA04F220EA020000EBD3705EEA430E17
:1035D00008BF20EAD37070BD94F0000F0FD101F046
:1035E0000046400041EB010111F4801F08BF013C7F
:1035F000F7D041EA060195F0000F18BF704703F0BD
:103600000046520043EB030313F4801F08BF013D43
:10361000F7D043EA0603704794EA0C0F0CEA1355FF
:1036200018BF95EA0C0F0CD050EA410618BF52EAB9
:103630004306D1D181EA030101F000414FF00000BF
:1036400070BD50EA410606BF1046194652EA4306CD
:1036500019D094EA0C0F02D150EA013613D195EA41
:103660000C0F05D152EA03361CBF104619460AD189
:1036700081EA030101F0004141F0FE4141F4700193
:103680004FF0000070BD41F0FE4141F4780170BD83
:1036900070B54FF0FF0C4CF4E06C1CEA11541DBFE8
:1036A0001CEA135594EA0C0F95EA0C0F00F0A7F8EA
:1036B000A4EB050481EA030E52EA03354FEA013117
:1036C00000F088804FEA03334FF0805545EA13132A
:1036D00043EA12634FEA022245EA111545EA1065F2
:1036E0004FEA00260EF000419D4208BF964244F189
:1036F000FD0404F5407402D25B084FEA3202B61AA8
:1037000065EB03055B084FEA32024FF480104FF47B
:10371000002CB6EB020E75EB030E22BFB61A7546EF
:1037200040EA0C005B084FEA3202B6EB020E75EB82
:10373000030E22BFB61A754640EA5C005B084FEAEA
:103740003202B6EB020E75EB030E22BFB61A7546B7
:1037500040EA9C005B084FEA3202B6EB020E75EBC2
:10376000030E22BFB61A754640EADC0055EA060E83
:1037700018D04FEA051545EA16754FEA06164FEAC6
:10378000C30343EA52734FEAC2025FEA1C1CC0D172
:1037900011F4801F0BD141EA00014FF000004FF0FF
:1037A000004CB6E711F4801F04BF01430020B4F1C0
:1037B000FD0C88BFBCF5E06F3FF6AFAEB5EB030C78
:1037C00004BFB6EB020C5FEA500C50F1000041EB75
:1037D000045170BD0EF0004E4EEA113114EB5C0442
:1037E000C2BFD4EB0C0541EA045170BD41F4801115
:1037F0004FF0000E013C90E645EA060E8DE60CEA1D
:10380000135594EA0C0F08BF95EA0C0F3FF43BAF39
:1038100094EA0C0F0AD150EA01347FF434AF95EAF0
:103820000C0F7FF425AF104619462CE795EA0C0FD4
:1038300006D152EA03353FF4FDAE1046194622E7A1
:1038400050EA410618BF52EA43067FF4C5AE50EA7B
:1038500041047FF40DAF52EA43057FF4EBAE12E76B
:103860004FF0FF3C06E000BF4FF0010C02E000BF4C
:103870004FF0010C4DF804CD4FEA410C7FEA6C5C2F
:103880004FEA430C18BF7FEA6C5C1BD001B050EAD2
:10389000410C0CBF52EA430C91EA030F02BF90EABD
:1038A000020F0020704710F1000F91EA030F58BF7C
:1038B000994208BF90422CBFD8176FEAE37040F0DE
:1038C000010070474FEA410C7FEA6C5C02D150EA7C
:1038D000013C07D14FEA430C7FEA6C5CD6D152EA37
:1038E000033CD3D05DF8040B704700BF84461046FC
:1038F00062468C461946634600E000BF01B5FFF7FB
:10390000B7FF002848BF10F1000F01BD4DF808EDCA
:10391000FFF7F4FF0CBF012000205DF808FB00BF9B
:103920004DF808EDFFF7EAFF34BF012000205DF8F5
:1039300008FB00BF4DF808EDFFF7E0FF94BF012042
:1039400000205DF808FB00BF4DF808EDFFF7CEFF43
:1039500094BF012000205DF808FB00BF4DF808ED82
:10396000FFF7C4FF34BF012000205DF808FB00BF53
:103970004FEA410C7FEA6C5C02D150EA013C0AD16B
:103980004FEA430C7FEA6C5C02D152EA033C02D15D
:103990004FF0000070474FF0010070474FEA4102BE
:1039A00012F5001215D211D56FF47873B3EB625291
:1039B00012D94FEAC12343F0004343EA505311F0B8
:1039C000004F23FA02F018BF404270474FF000004A
:1039D000704750EA013005D111F0004008BF6FF088
:1039E000004070474FF00000704700BF4A0011D2FE
:1039F00012F5001211D20DD56FF47873B3EB625249
:103A00000ED44FEAC12343F0004343EA505323FA54
:103A100002F070474FF00000704750EA013002D1C9
:103A20004FF0FF3070474FF0000070474FEA4102FF
:103A3000B2F1E04324BFB3F5001CDCF1FE5C0DD90C
:103A400001F0004C4FEAC0024CEA5070B2F1004F56
:103A500040EB830008BF20F00100704711F0804F59
:103A600021D113F13872BCBF01F00040704741F41E
:103A700080114FEA5252C2F11802C2F1200C10FA22
:103A80000CF320FA02F018BF40F001004FEAC12306
:103A90004FEAD32303FA0CFC40EA0C0023FA02F3AA
:103AA0004FEA4303CCE77FEA625307D150EA013380
:103AB0001EBF4FF0FE4040F44000704701F0004050
:103AC00040F0FE4040F40000704700BF002101F0CC
:103AD00083BC0A22002101F00FBD0A22002101F05F
:103AE0000BBD000010B5054C13462CB10A4601462B
:103AF0000220AFF3008010BD2046FCE7000000006C
:103B000008B5074B044613B10021AFF30080054B05
:103B10001868836A03B19847204603F0B7FC00BFDA
:103B200000000000A876000070B50D4E0D4CA41BDF
:103B3000A4100025A54209D10B4E0C4C03F0A8FCA3
:103B4000A41BA4100025A54205D170BD56F8253050
:103B500098470135EEE756F8253098470135F2E7EA
:103B60001402002014020020140200202002002071
:103B7000931E222B10B50C4604D900230B701C4653
:103B8000204610BD0A2A09D1002807DA2D230B7020
:103B900040420121214401F0C5FCF1E70021F9E791
:103BA000FFF7E6BFD0F8EC0070470000024B01467B
:103BB000186800F097B800BF44000020024B01468F
:103BC000186800F041B800BF4400002082B001B97D
:103BD00001A942B14BB113780B601278101C18BFC9
:103BE000012002B070471046FBE76FF00100F8E7D4
:103BF00010B5431E0A44914200D110BD11F8014B8B
:103C000003F8014FF7E7884210B501EB020307D82C
:103C1000421E99420AD011F8014B02F8014FF8E711
:103C20008342F5D98118D21AD34200D110BD13F8BE
:103C3000014D01F8014DF7E702440346934200D1DC
:103C4000704703F8011BF9E738B50546002945D050
:103C500051F8043C0C1F002BB8BFE41802F080FEA2
:103C60001F4A1368104633B9636014602846BDE8E4
:103C7000384002F076BEA3420CD921686218934204
:103C800004BF1A685B68636004BF52182260046056
:103C9000ECE713465A680AB1A242FAD919685818D3
:103CA000A0420BD120680144581882421960DDD12E
:103CB000106852685A6001441960D7E702D90C2392
:103CC0002B60D3E7206821188A4204BF116852682C
:103CD000626004BF091821605C60C7E738BD00BF9F
:103CE000D407002070B5CD1C25F0030508350C2D38
:103CF00038BF0C25002D064601DBA94203D90C2351
:103D00003360002070BD02F02BFE214A146821466A
:103D100091B9204C23681BB9304600F0D9FC2060D3
:103D20002946304600F0D4FC431C24D10C233360D8
:103D3000304602F016FEE4E70B685B1B18D40B2B31
:103D40000FD90B60CD50CC18304602F00AFE04F1BA
:103D50000B00231D20F00700C31AD3D05A42E250B3
:103D6000D0E78C424B6816BF636013600C46EBE7EC
:103D70000C464968CCE7C41C24F00304A04205D0DB
:103D8000211A304600F0A4FC0130CFD02560DBE7DB
:103D9000D4070020D80700202DE9F04788B0002B79
:103DA000149F109EDDE9121A1D4627F02007BBBFA5
:103DB00003F100431D4600232D231446B8BF1446CB
:103DC000462F0B7004D0452F00D10136022300E0AE
:103DD000032307AA049206AACDE902A2CDE9003680
:103DE00022462B4601F078FC472F804602D1119BDA
:103DF000DB0726D5462F08EB060911D198F80030CD
:103E0000302B0AD10022002320462946FFF77EFDF1
:103E100018B9C6F10106CAF80060DAF80030994412
:103E20000022002320462946FFF770FD38B93022D2
:103E3000079B4B4505D2591C07911A70F8E7CDF83E
:103E40001C90079B159AA3EB08034046136008B02B
:103E5000BDE8F087F7B500290446BABF49422D23D3
:103E60002B23092904F8022B437020DD0DF10703F1
:103E70001F460A2691FBF6F506FB15113031092D78
:103E800003F8011C03F1FF32294609DC3031023B03
:103E900002F8011CBB42224604D3101A03B0F0BD45
:103EA0001346E7E713F8012B04F8012BF2E7302360
:103EB00019448370021DC170EFE700002DE9F04F37
:103EC00091B00C46DDF8688016461F46054602F0A4
:103ED000E9FC03680893184600F03CFC00230E93AD
:103EE000D8F800300990073323F0070303F10802E4
:103EF00094F818A0D4F800B0C8F80020D3E9002343
:103F0000C4E91223D4E9128929F000430B93CDF8B8
:103F100028804FF0FF32A94BDDE90A01FFF728FDA9
:103F200070BB4FF0FF32A54BDDE90A01FFF702FD40
:103F300030BB0022002340464946FFF7F1FC10B198
:103F40002D2384F843309E4A9E4BBAF1470F8CBF15
:103F500090469846032323612BF0040323604FF01F
:103F60000009009733460FAA2146284600F0ECF9D5
:103F7000013040F090804FF0FF3011B0BDE8F08F7D
:103F800042464B4640464946FFF7F2FC10B18E4A86
:103F90008E4BDAE76368591C4BF480620EA90DA8BA
:103FA00040D1062363600DF13303CDE901234FF0C7
:103FB000000C63682260CDE9030A009342464B4639
:103FC000CDE9051C2846FFF7E7FE0AF0DF03472B83
:103FD000804609D10D9BD81C02DB6268934247DD05
:103FE000AAF1020A5FFA8AFABAF1650F0D9924D88C
:103FF0000139524604F150000D91FFF72BFF0E9A44
:104000001318012A8146236102DC2268D10701D5F9
:10401000013323619DF83330002BA2D02D2384F887
:1040200043309EE7BAF1670F00F07881BAF1470F8D
:10403000B9D1002BB7D10123B4E7BAF1660F19D17A
:10404000002963680CDD216113B92268D20702D50B
:1040500001330B4423610D9BA3654FF00009D9E7A1
:1040600013B92268D00701D50233F3E70123F1E742
:104070004FF0670ADDE90D32934205DB22682361C8
:10408000D107E8D50133E5E7002BD4BFC3F1020324
:1040900001231344DEE723685A0507D42369424607
:1040A00031462846B84701302BD164E7BAF1650F95
:1040B00040F2DD8000220023D4E91201FFF726FC44
:1040C000002833D00123424A31462846B847013000
:1040D0003FF451AFDDE90D239A4202DB2368D80794
:1040E0000FD5DDE9082331462846B84701303FF4B3
:1040F00042AF4FF0000804F11A090E9B013B434503
:1041000009DC23689B0700F10481E0680F9B98425B
:10411000B8BF184631E701234A4631462846B8471A
:1041200001303FF428AF08F10108E6E70D9B002BB2
:104130002BDC0123264A31462846B84701303FF49C
:104140001AAF0D9B23B90E9B13B92368D907D8D595
:10415000DDE9082331462846B84701303FF40BAF6C
:104160004FF0000904F11A0A0D9B5B424B4501DC3C
:104170000E9B94E70123524631462846B84701304A
:104180003FF4F9AE09F10109EEE70E9AA36D9A42E8
:10419000A8BF1A46002A914607DD1346314642461B
:1041A0002846B84701303FF4E6AE04F11A034FF059
:1041B000000B29EAE9790A9316E000BFFFFFEF7FC1
:1041C000BA760000B6760000C2760000BE76000027
:1041D000AA74000001230A9A31462846B8470130E4
:1041E0003FF4C9AE0BF1010BD4F858A0AAEB0903B8
:1041F0005B45EFDCDDE90D239A42D04415DB2368F3
:10420000DA0712D40E9B0D99A3EB0A02A3EB010A65
:104210009245A8BF9246BAF1000F0EDC4FF000089D
:104220002AEAEA7A04F11A0919E0DDE9082331469D
:104230002846B8470130E5D19DE65346424631460F
:104240002846B8470130E9D195E601234A46314670
:104250002846B84701303FF48EAE08F10108DDE989
:104260000D239B1AA3EB0A034345EEDC49E70E9AA4
:10427000012A01DCDB073AD50123424631462846B4
:10428000B84701303FF477AEDDE9082331462846D0
:10429000B847013008F101083FF46DAE0E9B0022D3
:1042A00003F1FF3AD4E912010023FFF72FFBC8B94D
:1042B0005346424631462846B84701300ED15AE6A9
:1042C0000123524631462846B84701303FF453AEE9
:1042D00008F101080E9B013B4345F1DC4B4604F11C
:1042E0005002DDE64FF0000804F11A0AF2E701235C
:1042F000DFE701234A4631462846B84701303FF4FC
:104300003AAE08F10108E3680F9A9B1A4345F0DCC6
:10431000FBE64FF0000804F11909F4E7002B3FF425
:104320008AAE4FF0000CCDE9051C0DF1330122607F
:10433000CDE9030ACDE90121009342464B462846C8
:10434000FFF72AFD804645E62DE9F04791461F46D6
:104350008A680B69DDF820809342B8BF1346C9F81C
:10436000003091F8432006460C4612B10133C9F8DB
:1043700000302368990642BFD9F800300233C9F8EB
:104380000030256815F0060507D104F1190AE36825
:10439000D9F800209B1AAB4228DC94F843302268FD
:1043A000003318BF012392062DD404F1430239468D
:1043B0003046C047013020D02368E568D9F8002096
:1043C00003F00603042B08BFAD1AA36822690CBFD3
:1043D00025EAE57500259342C4BF9B1AED184FF0FE
:1043E00000091A344D451AD1002008E00123524635
:1043F00039463046C047013003D14FF0FF30BDE8A9
:10440000F0870135C3E7E1185A1C302081F84300DA
:10441000224494F8451082F843100233C5E7012383
:10442000224639463046C0470130E6D009F101093D
:10443000D8E700002DE9F04301F1430C0C46097E5A
:1044400085B06E291746064698460C9A00F0B38050
:1044500022D8632936D00AD8002900F0B98058291B
:1044600000F0838004F1420584F8421032E06429B0
:1044700001D06929F6D120681368050603F104010B
:104480002AD51B681160002B03DA2D225B4284F8C9
:1044900043206F480A2239E0732900F09D8008D834
:1044A0006F2920D07029DDD1236843F020032360D9
:1044B00003E0752917D07829D4D1782384F84530C2
:1044C000644855E01368191D1B68116004F142052A
:1044D00084F8423001238CE01B68116010F0400F1B
:1044E00018BF1BB2CFE713682568181D1060280697
:1044F00001D51B6802E06806FBD51B8854486F296C
:1045000014BF0A220822002184F843106568A560C0
:10451000002DC0F29580216821F004012160002B5C
:104520003DD1002D40F08E806546082A0BD12368CE
:10453000DB0708D5236962689A42DEBF302305F89D
:10454000013C05F1FF35ACEB05032361CDF800809C
:104550003B4603AA21463046FFF7F6FE01304DD117
:104560004FF0FF3005B0BDE8F083394884F84510BE
:10457000136821681D1D1B6815600A060BD5CA0744
:1045800044BF41F0200121601BB9226822F02002C3
:1045900022601022B7E74D0648BF9BB2EFE76546A1
:1045A000B3FBF2F102FB1133C35C05F8013D0B468E
:1045B0000029F5D1B9E7136825686169181D1060F5
:1045C00028061B6801D5196002E06A06FBD5198030
:1045D000002323616546B9E71368191D11601D6842
:1045E00062680021284602F06BF908B1401B606048
:1045F00063682361002384F84330A7E723692A46D0
:1046000039463046C0470130AAD023689B0713D4EF
:10461000E068039B9842B8BF1846A3E701234A46C7
:1046200039463046C04701309AD00135E368039AD5
:104630009B1AAB42F2DCEBE7002504F11909F5E720
:10464000002BACD1037884F8423004F142056CE7CA
:10465000C6760000D776000038B5134B1C68A36BF4
:104660007BB91820FFF7A2FA104A114BA063C0E9EA
:104670000023104B83600B23838101220023C0E9B8
:104680000423A16B0C480A694B690C4C504304FB92
:104690000300A2FB04230344541C43F10005C1E9B9
:1046A000044525F0004038BD440000200E33CDAB5A
:1046B00034126DE6ECDE05002DF451582D7F954C3B
:1046C000024B0A460146186802F054BD440000201F
:1046D00038B5064C002305460846236002F0C8FEA4
:1046E000431C02D1236803B12B6038BDE0070020D2
:1046F0000EB400B59CB01DAB029006906FF0004167
:10470000094807910491094953F8042B0591006861
:10471000019302A902F0AEFD029B00221A701CB0A8
:104720005DF804EB03B07047440000200802FFFF6F
:1047300010F8012B11F8013B012A28BF9A42F7D04B
:10474000D01A7047034611F8012B03F8012B002AF9
:10475000F9D17047034613F8012B002AFBD1181A30
:104760000138704710B56AB10139841810F8013B5F
:1047700011F8012F934203D1A04201D0002BF5D1B3
:10478000981A10BD1046FCE770B50139044602B90D
:1047900070BD234611F8015F03F8015B561E2DB969
:1047A0001444A342F4D003F8015BFAE71C463246F6
:1047B000EDE72DE9F0410F46904602F09FFB0446DD
:1047C0000D46B8F1000F11D0C7F30A53C3F16B03C4
:1047D000002B0BDD1B0503F17F55002405F540156B
:1047E00022462B46FEF72AFE04460D462046294661
:1047F000BDE8F081000000002DE9F04FA1B01F4698
:104800000490002338460E4617921C9302F048F895
:1048100080460068FFF79EFF4FF0000904464FF006
:10482000000A1B961B9B1A780D2A30D8092A34D20D
:10483000002A3CD000230E931B9D2B78302B40F098
:10484000AA806B78582B01D0782B65D10E9B0193F1
:104850001CAB009302971DAB874A04981BA901F07B
:1048600048FD10F00704064605D0062C29D1013575
:1048700000231B950E93179B002B40F094850E9BF5
:10488000D3B148460AF1004121B0BDE8F08F2B2A90
:1048900015D02D2A04D0202ACCD101331B93C1E797
:1048A00001220E925A1C1B925B78002BC4D1179BDD
:1048B0001B96002B40F0758548465146E4E70022E0
:1048C000EFE71C9A3AB135211EA802F00AFC1C99A8
:1048D000049802F07BF8013C042C06D8DFE804F0D1
:1048E0000A0314170A00DDE91E9A3107C3D54AF0FE
:1048F000004AC0E7DDE91E931D9A23F4801302F2FB
:10490000334243EA025AF0E7DFF870A1EDE76FF0B7
:10491000004A4FF0FF39E8E71B9B5A1C1B925B785B
:10492000302BF9D0002BA6D00123002507931B9B29
:104930000C930695AB460A221B980778A7F1300323
:10494000D9B2092929D92246D8F80010FFF70AFF61
:10495000002832D000203B465C4602460590652B7D
:1049600001D0452B14D124B910B9079B002B9ED040
:1049700000241B9E731C1B9373782B2B79D02D2B3B
:1049800071D04FF0000CA3F13007092F7CD91B9692
:104990004FF0000E9AE00023C7E7BBF1080FD8BF25
:1049A000069900F10100DABF02FB0133069302FB16
:1049B00005350BF1010B1B90BEE71B9B1A191B92CF
:1049C0001B5DBBF1000F37D002465C46A3F13001FE
:1049D000092913D901210591C1E71B9B5A1C1B9280
:1049E0005B780130302BF8D0A3F13102082A00F2B5
:1049F000DF841B9A0C92024600200446B3F1300E6D
:104A000000F1010112D00A4400EB040C21460A27F0
:104A10008C4513D12118082904F10104044419DC40
:104A2000069B0A2101FB03E3069300211B9B581CF4
:104A30001B905B780846C9E75846D3E7082901F17F
:104A4000010103DC069B7B430693E1E71029D8BFF5
:104A50007D43DDE7102CDCBF0A2101FB05E5E4E71F
:104A60000123059380E74FF0010CB31C1B93B3782F
:104A700089E74FF0000CF8E7E87600000000F07FCF
:104A80001B9B5F1C1B975B78302BF9D0A3F1310780
:104A9000082F3FF67DAFA3F1300E1B9B08931B9BA5
:104AA0005F1C1B975B78A3F13008B8F1090F37D969
:104AB00008997F1A082F44F61F6737DCBE45A8BF48
:104AC000BE46BCF1000F01D0CEF1000E002C51D13A
:104AD00000287FF4D0AE079A002A7FF4CCAE059A66
:104AE000002A7FF4E4AE4E2B27D021DC492B7FF443
:104AF000DEAE9F491BA801F02FFE00283FF4D7AE81
:104B00001B9B9C49013B1BA81B9301F025FE10B980
:104B10001B9B01331B93DFF870A24FF00009AAE63C
:104B20000A2101FB0E3EAEF1300EB8E7BE46C8E7E3
:104B3000692BDED06E2B7FF4BAAE8F491BA801F033
:104B40000BFE00283FF4B3AE1B9B1B78282B0ED125
:104B50001EAA8A491BA801F013FE052807D11F9B36
:104B6000DDF8789043F0FF4A4AF4E00A83E6DFF884
:104B700020A2D2E7AEEB0203BBF1000F08BFA346B1
:104B800006980793102CA046A8BF4FF01008FEF718
:104B9000DBFB092C81468A4613DC079B002B3FF484
:104BA0006AAE079B7ADD162B61DC754A02EBC30EF9
:104BB000DEE900014A465346FEF740FC81468A463C
:104BC00059E66F4B03EBC80353E91223FEF736FC9B
:104BD000064628460F46FEF7B7FB02460B46304610
:104BE0003946FEF775FA0F2C81468A46D5DD079BBC
:104BF000A4EB08089844B8F1000F40F3968018F031
:104C00000F030AD05E4901EBC3014A465346D1E97E
:104C10000001FEF713FC81468A4638F00F0873D076
:104C2000B8F59A7F47DD0024A3460C940694049AB5
:104C3000DFF854A1222313604FF000090C9B002BD6
:104C40003FF419AE1C99049801F0C0FE069904982F
:104C500001F0BCFE5946049801F0B8FE0C99049886
:104C600001F0B4FE2146049801F0B0FE03E6079A75
:104C7000C4F125039342BADB414DC4F10F0405EBA7
:104C8000C4014A465346D1E90001FEF7D7FB079B12
:104C90001C1B05EBC405D5E900238DE713F1160FA6
:104CA000A5DB374AA2EBC302D2E9002348465146AE
:104CB000FEF7EEFC82E70023324E4FEA2818484602
:104CC00051461D46B8F1010F21DC0BB181468A46E1
:104CD0002C4BAAF1547A03EBC5054A465346D5E955
:104CE0000001FEF7ABFB284B0A460B4027498B42DD
:104CF000814698D8A1F580118B4286BFDFF894A039
:104D00004FF0FF3902F1547A0023059376E018F052
:104D1000010F06D006EBC503D3E90023FEF78EFB97
:104D2000012301354FEA6808CCE7EDD0C8F100084F
:104D300018F00F020AD0124B03EBC203484651464B
:104D4000D3E90023FEF7A4FC81468A465FEA2818CF
:104D5000DAD0B8F11F0F1FDD0024A3460C9406948F
:104D6000049A22234FF000094FF0000A136065E710
:104D7000BB76000061780000C3760000FC7600007E
:104D8000F8780000D07800000000F07F0000A07CE0
:104D90000000F8FFFFFFEF7F18F0100318BF6A2331
:104DA000A14D0593484651460023B8F1000F00F38A
:104DB0000E810BB181468A46059BBBB1CAF30A53EB
:104DC000C3F16B03002B514610DD1F2B40F30B8109
:104DD000342BDEBF203B4FF0FF3202FA03F34FF0DB
:104DE0000009CCBF4FF05C7A03EA010A00220023DD
:104DF00048465146FEF78AFD0028ADD1069B009338
:104E00005A4623460C99049801F032FE0C90002873
:104E10003FF409AF079A079B002AC3F10003A8BF1C
:104E200000230F93002422EAE2731693A3460C9BFF
:104E30000498596801F096FD069000283FF4F7AEFB
:104E40000C9B1A69023203F10C0192000C30FEF740
:104E5000CFFE1EAB01931DAB00934A465346049808
:104E6000CDE9089A02F0C0F81C9000283FF4DFAEAC
:104E70000121049801F088FE834600283FF4D7AE54
:104E80001D9D1E9A002DABBF0F9B169B169E0F9F5C
:104E9000ACBFEF185E1B059BED1A1544634B013D3B
:104EA0009D42C2F1360280F2B0805B1B1F2BA2EB49
:104EB00003024FF0010100F39D8001FA03F30A930E
:104EC000002507EB0208059B474516441E443B4658
:104ED000A8BF4346B342A8BF3346002BC2BFA8EBCE
:104EE0000308F61AFF1A0F9BBBB159461A460498DD
:104EF00001F0EAFE834600283FF499AE01461C9A71
:104F0000049801F04AFE0D9000283FF490AE1C99E1
:104F1000049801F05BFD0D9B1C93B8F1000F78DC49
:104F2000079B002B08DD169A0699049801F0CCFE29
:104F3000069000283FF47BAE002E08DD324606992D
:104F4000049801F00FFF069000283FF470AE002F88
:104F500008DD59463A46049801F004FF83460028CC
:104F60003FF465AE069A1C99049801F069FF044667
:104F700000283FF45CAEC3680D930023C36059461C
:104F800001F044FF002853DA0D9BE3B9B9F1000F9B
:104F900019D1CAF31303B3B92AF000431B0D1B0543
:104FA000B3F1D66F0FD9636913B92369012B0ADDF9
:104FB00021460122049801F0D5FE5946044601F02D
:104FC00025FF002867DC059B002B71D13AE618F01D
:104FD000010F04D0D5E90023FEF730FA01234FEA90
:104FE00068080835E1E64FF0FF3202FA03F303EAFE
:104FF0000909FBE6C5F17F4505F57F0505F57B450C
:10500000E23501FA05F50A915BE7012300250A93D1
:1050100057E742461C99049801F0A4FE1C90002812
:105020007FF47EAF03E600BF1077000002FCFFFFB5
:10503000D04640F088800D9ACAF313033AB3AE4AC3
:10504000934255D1059B4846E3B1AC4A0AEA0202B5
:10505000B2F1D46F4FF0FF3117D8120DC2F16B03CC
:1050600001FA03F3984243D1A54B984502D1013090
:105070003FF4DDADA14B08EA030303F5801A4FF0BE
:105080000009A0E74FF0FF33ECE70B46EAE77BBBF4
:10509000B9F1000F2CD10599984A5346F1B102EAB3
:1050A0000A01B1F1D66F19DCB1F15C7F7FF758AE20
:1050B000944A0023CDE9143248465146DDE91423D1
:1050C000FEF7BCF981468A4600297FF4BBAD002873
:1050D0007FF4B8AD049A22231360B3E51340A3F51F
:1050E00080136FEA135A6FEA0A5A4FF0FF396AE7E2
:1050F0009DB115EA080F3FF466AF0D9B059A48462F
:10510000514673B1FFF755FB02460B46DDE9080136
:10511000FDF7DEFF81468A4655E70A9B13EA090F31
:10512000E9E7FFF746FB02460B46DDE90801FDF71C
:10513000CDFF0022002381468A46FEF7E7FB0028C8
:105140007FF40EAE3FE75946204601F09CFF002257
:105150004FF0804306460F46FEF7ECFB002874D064
:105160000D9B002B46D0684B0022CDE90A23664FE9
:105170000026624D654B08EA05059D4240F0CE8051
:10518000DDE90823A8F1547AC84640465146CDE9E6
:10519000142301F0B3FE02460B46DDE90A01FEF7D7
:1051A0004DF942465346FDF793FF0B465349584A83
:1051B0001940914281465CD9099B02F15472934295
:1051C00003D1089B01333FF432ADDFF834A14FF037
:1051D000FF391C99049801F0F9FB0699049801F035
:1051E000F5FB5946049801F0F1FB2146049801F0C3
:1051F000EDFB1CE6B9F1000F1AD1CAF31303F3B9A2
:105200000022414B30463946FEF78AFBD0B9304682
:10521000394600223F4BFEF711F906460F4607F1CB
:10522000004318961993DDE91823CDE90A23A0E776
:10523000B9F1010F03D1BAF1000F3FF491AD002293
:10524000354B92E70026334FE9E7324B304639467B
:105250000022FEF7F3F80D9B06460F4633B901F125
:10526000004310901193DDE91023DEE7CDE91067CC
:10527000F9E703F1547A059B002BAAD12AF00043E9
:105280001B0D1B059D42CDF820A0A2D1394630460A
:10529000FEF784FBFEF768F80B46024639463046B7
:1052A000FDF714FF0D9B074688463BB9B9F1000F87
:1052B00004D1089BC3F31306002E6CD00AA3D3E9D4
:1052C000002338464146FEF72BFB00287FF4BAAC9A
:1052D00007A3D3E9002338464146FEF73FFB0028E9
:1052E0003FF477AFAEE400BF9535A094FFFFDF3FFA
:1052F00035E5AF350000E03FFFFF0F000000F07F15
:10530000FFFFEF7F000050390000F03F0000E07F1A
:10531000FFFF9F7C0000E03F0000F0BF059B23B330
:10532000B5F1D46F21D828A3D3E9002330463946FC
:10533000FEF700FBA0B139463046FEF757FB0028C8
:1053400008BF0120FEF700F80D9B06460F46FBB98B
:1053500001F1004312901393DDE91223CDE90A23F2
:105360000B9B03F1D6635B1B0B93DDE90801DDE9C1
:105370000A8901F0C3FD02460B4640464946FEF746
:105380005DF8DDE90823FDF7A3FE81468A4672E752
:10539000CDE91267E0E70EA3D3E90023FEF7C0FAD8
:1053A0009DE700230E93179A1B9B1360FFF767BAC4
:1053B000652B4FF000023FF453AB012114460591D9
:1053C000FFF7CFBAAFF300800000C0FFFFFFDF415F
:1053D0009535A094FFFFCF3F074B084A10B41C68D7
:1053E000236A002B08BF13460A46014620465DF893
:1053F000044BFFF701BA00BF44000020A8000020C2
:105400002DE9F0478046894692461E460F463D46A6
:10541000089815F8014BFEF7C5FB2044437813F0BC
:10542000080332D12D2C32D17C78BD1C0122002EF4
:105430005DD0102E09D1302C07D12B7803F0DF037B
:10544000582B4FD16C7810260235002A14BF4FF02C
:1054500000416FF000410027B1FBF6FC384606FB27
:105460001C1EA4F13003092B17D81C46A64223DDCD
:105470007B1C07D084451CD301D1A64519DB00FB5A
:105480000640012715F8014BEBE72F46BFE72B2C11
:1054900004BFBD1C7C781A46C9E7A4F14103192B4F
:1054A00001D8373CE2E7A4F16103192B04D8573C3B
:1054B000DCE74FF0FF37E5E77B1C08D12223C8F873
:1054C00000300846BAF1000F07D1BDE8F08702B1FD
:1054D0004042BAF1000FF8D00FB105F1FF39CAF818
:1054E0000090F2E73024002EAFD10826ADE7302C33
:1054F000A3D00A26A9E70000084B37B51C68084D61
:10550000236A002B08BF2B46009313460A46014628
:105510002046FFF775FF03B030BD00BF44000020F8
:10552000A8000020F0B51D4B8BB005460C466E461A
:1055300003F1200C18685968374603C708336345E0
:105540003E46F7D118681B793B71931E222B3860B9
:105550004FF0000304D923701C4620460BB0F0BD69
:10556000661EB5FBF2F00AAF02FB10553D44591C14
:1055700015F8285C06F8015F054668B960542344B5
:105580002246191B101B8142E7DD1178187802F8BA
:10559000010B03F80119F4E70B46E2E73877000046
:1055A000FFF7C0BF49B1FF2A85BF8A2303600A7095
:1055B0004FF0FF3098BF01207047084670472DE933
:1055C000F74F03690C69A3428046C0F28280013C18
:1055D00001F114074FEA840C00F1140657F8245027
:1055E00056F8240006EB0C03013507EB0C09019378
:1055F000B0FBF5F595B34FF0000A3846B646D346F2
:1056000050F8042B93B205FB03A34FEA134A9BB255
:10561000ABEB0303120CDEF800B005FB02A213FA99
:105620008BF34FEA124A1FFA82FBDEF80020CBEB25
:10563000124202EB23429BB243EA024381454FEA06
:10564000224B4EF8043BDBD256F80C3033B9019BA9
:10565000043B9E421A4630D3C8F81040404601F041
:10566000D5FB002825DB013530464FF0000C57F8FC
:10567000042BD0F800E093B2ACEB0303120C13FA46
:105680008EF3C2EB1E4202EB23429BB243EA02437B
:10569000B9454FEA224C40F8043BE8D256F82420A2
:1056A00006EB84032AB9043B9E421A460BD3C8F882
:1056B0001040284603B0BDE8F08F1268043B002A72
:1056C000CAD1013CC5E71268043B002AEFD1013C76
:1056D000EAE70020EEE700002DE9F04F456A97B0B9
:1056E00016461F460446DDF88C80CDE902673DB9B9
:1056F0001020FEF75BFA6062C0E901550560C560E5
:10570000636A196851B15A684A60012393408B60FB
:10571000204601F05BF9636A00221A603B1EBBBFA2
:1057200023F00043039300230122ACBFC8F80030EC
:10573000C8F80020B24BDDF80C8033EA08031BD117
:10574000229A42F20F731360029B23B9C8F313002D
:10575000002800F04F85249B53B9AA4B21E0AA4BA7
:1057600005930833249A1360059817B0BDE8F08FAD
:10577000A44B05930333F5E7DDE90267002200231C
:1057800030463946FEF7C2F8824660B1229A0123BC
:105790001360249B002B00F02A859C4B249A1360F5
:1057A000013B0593E0E714AB019315AB0093324640
:1057B0003B46204601F018FCC8F30A558346002DED
:1057C0007CD0C7F3130343F07F59B04649F4401926
:1057D000A5F2FF35CDF84CA000228D4B404649463E
:1057E000FDF774FC80A3D3E90023FDF727FE80A317
:1057F000D3E90023FDF76CFC064628460F46FDF76B
:10580000B3FD7DA3D3E90023FDF718FE02460B4646
:1058100030463946FDF75CFC06460F46FEF7BEF8FB
:1058200000228246002330463946FEF779F848B117
:105830005046FDF799FD32463B46FEF767F808B93A
:105840000AF1FF3ABAF1160F59D8724901EBCA01B1
:10585000DDE90223D1E90001FEF780F8002850D0ED
:105860000AF1FF3A00231293149B5D1BB5F1010866
:1058700049BFC5F10103002308934FF0000858BF4A
:105880000893BAF1000F3EDB0023D044CDF834A0DA
:105890000993209B092B00F29080052BC4BF043B89
:1058A0002093209BA3F10203CCBF00250125032BED
:1058B00000F28F80DFE803F07D7F3171DDE9145362
:1058C0001D4405F23240202813DDC0F14000029B48
:1058D00008FA00F805F2124023FA00F048EA000046
:1058E000FDF732FD01238046A1F1F879013D1393C4
:1058F00072E7029BC0F1200003FA00F0F0E70123F9
:10590000B1E71290B0E7089BA3EB0A030893CAF132
:105910000003099300230D93BBE701230C93219B04
:10592000002B59DD06939946666A002272600422B4
:1059300002F114009842716870D9204601F012F803
:10594000636A30601B680593B9F10E0F00F2EB80BB
:10595000002D00F0E8809DED027BBAF1000F8DED87
:10596000107B79DD2B4A0AF00F0302EBC30393EDA2
:10597000007B4FEA2A16F0068DED0A7B6AD5264B8E
:10598000DDE91001D3E90823FDF782FECDE902012C
:1059900006F00F060325204F51E001230C93219BB5
:1059A000534403F1010906934B46012BB8BF012371
:1059B000BAE70023B2E70023F0E701250023209394
:1059C0000C954FF0FF330693994600221223219243
:1059D000AAE701230C93F4E70123069399461A469C
:1059E000F5E700BFAFF3008061436F63A787D23F45
:1059F000B3C8608B288AC63FFB799F501344D33FBE
:105A00000000F07F677800005E780000AB74000053
:105A10000000F83FF8780000D07800000131716094
:105A2000520085E7F10708D5DDE90A01D7E900232F
:105A3000FDF704FDCDE90A01013576100837002E87
:105A4000F0D1DDE90A23DDE90201FDF721FECDE910
:105A500002011AE002259EE700F0A080CAF10006CC
:105A60009F4BA04F06F00F0203EBC203D3E90023C4
:105A7000DDE91001FDF7E2FCCDE90201361100235A
:105A80000225002E7FD1002BE1D1129B002B00F0CC
:105A90008780DDE902670022934B30463946FDF7E7
:105AA0003FFF00287CD0B9F1000F79D0069B002B76
:105AB00035DD0AF1FF330A93394600228B4B30461D
:105AC000FDF7BCFCCDE90201069F01352846FDF734
:105AD0004BFCDDE90223FDF7B1FC0022844BFDF70E
