:10000000000001209D1D0000C51D0000C71D00004F
:10001000C91D0000CB1D0000CD1D00000000000028
:10002000000000000000000000000000CF1D0000E4
:10003000D11D000000000000D31D0000D51D0000F0
:10004000D71D0000D50D0000FD220000D71D0000C7
:10005000D71D0000D71D000029230000D71D000078
:10006000B10F0000D71D0000D71D0000D71D0000F4
:10007000D71D0000D71D0000D71D0000D71D0000B0
:10008000D71D000041260000D71D0000D71D00002D
:10009000D71D0000D71D0000D71D0000D71D000090
:1000A000D71D0000D71D0000D71D0000D71D000080
:1000B000D71D0000D71D0000000000000000000058
:1000C000D71D0000D71D0000D71D0000D71D000060
:1000D000690B0000D71D0000D71D000000000000C4
:1000E0000000000000000000000000000000000010
:1000F0000000000000000000000000000000000000
:1001000000000000000000000000000000000000EF
:1001100000000000000000000000000000000000DF
:1001200000000000000000000000000000000000CF
:1001300000000000000000000000000000000000BF
:1001400000000000000000000000000000000000AF
:10015000000000000000000000000000000000009F
:10016000000000000000000000000000000000008F
:10017000000000000000000000000000000000007F
:10018000000000000000000000000000000000006F
:10019000000000000000000000000000000000005F
:1001A000000000000000000000000000000000004F
:1001B000000000000000000000000000000000003F
:1001C000000000000000000000000000000000002F
:1001D000000000000000000000000000000000001F
:1001E000000000000000000000000000000000000F
:1001F00000000000000000000000000000000000FF
:1002000010B5054C237833B9044B13B10448AFF350
:1002100000800123237010BD200200200000000098
:100220004870000008B5034B1BB103490348AFF306
:10023000008008BD0000000024020020487000007B
:10024000154B002B08BF134B9D46A3F5803A0021A8
:100250008B460F461348144A121A03F093F80F4BBB
:10026000002B00D098470E4B002B00D09847002061
:10027000002104000D000D48002802D00C48AFF307
:10028000008002F0F7FF2000290001F01FFD02F0BE
:10029000DDFF00BF0000080000000120000000009A
:1002A0000000000020020020AC0700200000000039
:1002B00000000000BFF34F8F0549064BCA6802F4E7
:1002C000E0621343CB60BFF34F8F00BFFDE700BF79
:1002D00000ED00E00400FA050D4B0222C3F8802077
:1002E0004FF48072C3F880200A4B4FF48102C3F8A8
:1002F0000825A3F5F033084AD3F80C151170002235
:10030000C3F8FC2F03F5E04301221A61704700BFD8
:1003100000E100E000F0014004000020074B1A7BE0
:1003200042F004021A735A7B02F08F026FF3030249
:100330005A73034B1B6803B11847704764020020CF
:10034000FC060020044A537B03F00F01052984BFFB
:100350006FF303035373704764020020094B5A7B09
:1003600002F0700170291FBFC2F30211013161F365
:1003700006125A731A7B02F0FB026FF304121A730F
:10038000FFF7AABF64020020EFF3108372B6044A9D
:10039000507AC0B283F31088003018BF0120704734
:1003A0007C0200205C4B5D49F0B500220120202436
:1003B000C3F8FC0F4025C3F80022186181F80143FF
:1003C0000224C1F880410C6081F808534FF4807515
:1003D000C1F880510D604FF0FF31C3F80421C3F81C
:1003E0002821C3F81421C3F81821C3F81021C3F839
:1003F0000C21C3F80821C3F80021C3F81C21C3F85D
:1004000008134FF48161C3F80413454991F90010B2
:10041000C3F80C154C21C3F808154FF40071C3F84C
:100420001045C3F850164FF6FF71C3F83445C3F8B2
:100430003C153C49C3F838153B49097891FAA1F1BC
:1004400009BA61F0FF01C3F824154FF0FC0C9CFAC7
:10045000ACF4E12594FA84FE95FAA5F7A8213FBAF9
:1004600091FAA1F636BA91FAA1F424BAE4B23F04A3
:1004700044EA0E6407F47F0736023C43B6B23443C5
:10048000C3F81C459CFAACFC9CFA8CFC95FAA5F5CB
:100490002DBA91FAA1F424BA91FAA1F109BAC9B21C
:1004A0002D0441EA0C6105F47F0524022943A4B21E
:1004B0002143C3F820156FF0FF01C3F828158121EF
:1004C000C3F830151949C3F814151949C3F818159C
:1004D0000921C3F8601503F5E04304215860186151
:1004E000C3F8101540F60801C3F80425C3F8082521
:1004F000C3F80012D860C3F84021C3F84421C3F800
:100500004821C3F84C21C3F85021C3F854214FF4BB
:100510000032C3F80423F0BD0010004000E100E009
:1005200004000020211001007502002006001300C5
:100530002000040110B50E4CD4F8FC3F0BB9FFF7B6
:1005400031FF0C4A136823F0807323F0010343F05A
:100550008073136040F279120123C4F80433C4F8A5
:100560000022D4F850250AB9636010BD2361FCE76E
:100570000010004074170040024AD2F80034002BEB
:10058000FBD0704700E0014070470000F8B5EFF382
:10059000108272B6EFF3108172B61D4C637ADBB233
:1005A00081F310881BB982F310881846F8BD237AAE
:1005B000657A217867685B1B0B4493FBF1F501FBBF
:1005C0001533DBB223255D437E1982F31088EEB12B
:1005D0007A5DB11C02F0B2FE96F922300D4A785DC8
:1005E0005B421BB21380EFF3108172B6EFF31082FF
:1005F00072B6637ADBB282F3108813B981F3108884
:10060000D4E7637A013BDBB26372F7E73046CDE7AC
:100610007C020020460500204FF010235A69013269
:1006200009BF4FF0805358695869000370470000B4
:1006300038B58C1821F48051A1421BD20E480223F8
:10064000D0F80455C0F80435A14206D2FFF794FF54
:10065000C0F8081501F58051F6E7FFF78DFF00237C
:10066000C0F80435FFF788FFC0F80455BDE83840EE
:10067000FFF782BF38BD00BF00E001400B68934226
:1006800010B514460FD008480123C0F80435FFF711
:1006900073FF0C60FFF770FF0023C0F80435BDE85E
:1006A0001040FFF769BF10BD00E001400B685A1C05
:1006B00010B515D001339BB240F2FD3293420FD8F2
:1006C00040F2FE30421E93420BD0C21A03EB62028C
:1006D00092B251F82240013414BF13461046F1E79C
:1006E000002010BDF0B5BDF81440DFF858C020124E
:1006F0004FF480758540260593420BD9013B9BB290
:1007000051F82300054205D000EA0C07B742F3D1A7
:10071000C0B211E0A30801339A4211D904F00304D6
:10072000022C51F8230008D0032C04D0012CEFD167
:10073000C0F3072000E0000EF0BDC0F30740FBE768
:10074000FF20F9E70000F0FF21F47F6121F00F01A5
:100750000B68013308D04A68530005D522F0804267
:1007600004310248FFF78ABF704700BF3C020020F7
:1007700021F47F6121F00F010B68013308D04A6832
:10078000002A05DA22F0004204310248FFF776BF62
:10079000704700BF3C02002008B50348FFF73CFF4C
:1007A000A0EB813008BD00BF3C02002070B50546BB
:1007B0000E460124A1B22846FFF7EEFF0368B342BC
:1007C00006D143685A0003D4002B01DA083070BD0B
:1007D0000134092CEED10124A1B22846FFF7DCFF39
:1007E00003689E4202D14368002BEFDB0134092CE1
:1007F000F2D14FF0FF30EAE770B521F47F6424F0C6
:100800000F04D4E900350133164616D04FF4805258
:1008100021461048FFF70CFF324621460D48FFF7EE
:100820002DFF6368013313D16A1C211D42F07F4202
:100830000848BDE87040FFF721BF04F1080304F544
:10084000805219680131E1D104339342F9D1E3E7D1
:1008500070BD00BF3C0200202DE9F0474FF0FF368D
:10086000DFF874908246884601273446B9B2504674
:10087000FFF792FF0368434505460DD14368002BFF
:100880000ADA00EA09035B685A0005D501464FF011
:10089000FF325046FFF7B0FF6A68531C23F07F43D6
:1008A000B34207D2296829B1013111D0002AA4BF6F
:1008B0001E462C460137092FD8D1631C05D021468E
:1008C00042465046FFF798FF08342046BDE8F087BF
:1008D0001E462C46EEE700BF00F0FFFF10B50949A9
:1008E0000948FFF763FF431C044609D10549064840
:1008F000FFF7B2FF0022044601460448FFF7BEFEA0
:10090000204610BDB9FD10773E0200203C020020B9
:100910002DE9F3471F4680460C469246FFF7DEFF5F
:10092000431C064607D12346FF22191B8F421FD9BD
:1009300003F8012BF9E701464046FFF7B7FE814671
:10094000A0B135680135ADB22744AAEB040A04EB27
:100950000A03BC429BB20BD000932A464B46314659
:100960004046FFF7BFFE04F8010BF0E70125EBE777
:1009700002B0BDE8F08700002DE9F74F83461D481F
:1009800091468A469846FFF7DFFE1B491948FFF754
:1009900063FF421C064628D00025071D2C46042371
:1009A000AA0092B20DEB03015846FFF7B1FF019A7E
:1009B0000135531CADB204D039461048FFF75EFE36
:1009C0002C46B5F5407F07F10407E8D122463146B1
:1009D0000A480134FFF752FEA4B251460548FFF71A
:1009E000C7FEA9F80040A8F80040304603B0BDE8B3
:1009F000F08F00BF3E020020B9FD10773C020020BE
:100A00002DE9F04F85B01446814688461E46FFF713
:100A100065FF421C054651D007680137BFB2014649
:100A20004846ADF80C70FFF741FE8742ADF80E0066
:100A30003FBF00F1804000F1FF30234F55F82030D8
:100A4000264434BF1F40002708F1FF381FFA86FBF9
:100A5000A34537D0BDF80EA0BDF80C200094534636
:100A600029464846FFF73EFE18F8016FB04222D0F3
:100A700040F2FD339A4509D90DF10E0303AA484609
:100A8000FFF77AFF431C054618D0002701232212E6
:100A900003FA02F2BDF80E100C4846EA045646EA84
:100AA00002223A4305EB8101FFF7E8FDBDF80E3065
:100AB0000133ADF80E300134A4B2C9E7002005B00F
:100AC000BDE8F08F0120FAE700FF0F003C02002094
:100AD00013B502AC012304F8012D0A462146FFF7A5
:100AE0008FFF02B010BD000093B28AB201460148E8
:100AF000FFF70EBF3D020020064A0748137B03F0B4
:100B0000F7036FF304130021137391600422FFF7BE
:100B1000EBBF00BF640200207702002093B28AB2CC
:100B200001460148FFF76CBF3D0200200A4681B232
:100B30000148FFF7CDBF00BF3D020020064A137BEE
:100B400003F0F9036FF300031373044B0120FF213B
:100B500098705970FFF7EABF640200207702002006
:100B600020BF40BF20BF7047064BD3F840213AB1A9
:100B7000054A012111700022C3F84021D3F8403109
:100B8000704700BF004002408802002013B50023D8
:100B9000002101220446C0E93E230160C0F8101183
:100BA000C0F81411F0220430CDE9001102F0EAFB84
:100BB00001238DF807306B4603CB6B46C4F8000168
:100BC000C4F8041103CB0C4BC4F8183103F10433FF
:100BD000C4F81C3103F10433C4F8203140F60D632E
:100BE000C4F80801A4F8243120460F23C4F80C11DE
:100BF00084F8263102B010BD0102030440790F3899
:100C000002288CBF0020012070470000074B4FF4E2
:100C10008102C3F80825064A0123C2F8043302F50D
:100C2000E04253601361034A1370704700F00140C3
:100C30000010004076020020F8B5244D2B785BB2FE
:100C4000002B3FDD224B234ED3F80425224FB24226
:100C50001FBF0022C3F8002201221A611F4A00248C
:100C600014700422C3F82C256522C3F800221C4A04
:100C7000C2F84C41D2F84C114FF4AA6001215160E6
:100C80001161D160C2F84C054FF40E70C2F84405F2
:100C90001448C0F88875C0F88C254FF48102C0F85C
:100CA0004C49C0F80425C3F80813C3F80465D3F809
:100CB00050252AB919602B78013B5BB22B70F8BD27
:100CC0001961F8E7FFF7A2FFF5E700BF3F02002038
:100CD000001000406D0500200C110040760200203D
:100CE0000080004000F001402DE9F0411E46334BEA
:100CF000D3F8FC3F0446884617460BB9FFF752FB72
:100D0000202F2F4D28BF20273A464146A81C02F02D
:100D100015FB2F70002E34D1A4F1FF035A425A4123
:100D20006B78284F62F30003DBB2C3F34102013258
:100D300062F34203FF2C6B7025D10323224E3B70DC
:100D400000233D7833701D4B6DB2D3F8282594FAFB
:100D5000A4F424BA22F0FF02E4B21443C3F82845F5
:100D600091221A4CC3F830254FF47F432380FFF7BC
:100D700063FFDFF85C8098F800304BB9FFF7F0FEB6
:100D8000F9E70122CCE7002E0CBF0F230323D5E7A0
:100D900023881BB213F5807F08D13B785BB2ED1A34
:100DA0004FF6E373A3EBC5031BB22380034B8122F1
:100DB000C3F830253078BDE8F08100BF0010004056
:100DC0006D0500203F02002074020020480500202D
:100DD000760200206F4BD3F82821012AF0B422D1EB
:100DE0000021C3F82811D3F828111A62D3F850252E
:100DF000032A40F08580D3F80824002A7DD14722B9
:100E0000C3F80022634BD3F80834042B0BD1624B98
:100E1000624901225A640978D3F84425033102EB70
:100E20004112C3F844255B4BD3F80021012A09D1B4
:100E30000022C3F80021D3F800115849C3F8041563
:100E4000C3F82C25D3F80C21012A54D10022C3F871
:100E50000C21D3F80C210922C3F86025D3F85025C2
:100E6000032A0BD0D3F85025022A07D0D3F85025F7
:100E7000042A03D0D3F85035092B3CD1454AD2F887
:100E80000034002B7ED0D2F80834042B434B6BD0B7
:100E90005878D2F80C14D2F80844C0F3410041EA63
:100EA00000413F4850F824408C4224D0D2F80844F6
:100EB00040F82410D2F8481583F82210EFF310847C
:100EC00072B6EFF3108672B636494D7A0F78EDB2EE
:100ED00086F31088BD4218D184F3108840F279134C
:100EE000C2F8003201231361D2F8082450F82230EE
:100EF000013340F82230F0BC704740F279127FE7AE
:100F000040F25B12C3F800228DE70A7A02EB8202FC
:100F1000C2EBC2004A6802449A420CD0184603F160
:100F2000200550F8046B42F8046BA842F9D10588FB
:100F30001580807890700A7A0D78501C90FBF5F23D
:100F400005FB1202D2B20A724A7A0132D2B24A7256
:100F500084F3108893F822209A7001221A705A782C
:100F600042F001025A70C6E71A78012A04D19B7830
:100F70000D4A5B421BB213800C4B0122F0BC1A706D
:100F8000FFF744BE40F27913C2F800320123136127
:100F9000B1E700BF00100040008000404A0500207B
:100FA000440200207C02002048050020740200203A
:100FB000094BD3F84C21012A0DD15A601A61002245
:100FC000C3F84421D3F84431044B1B780BB9FFF725
:100FD00033BEFFF71BBE7047008000407402002044
:100FE000074B084A1870D2F8243590FAA0F000BADE
:100FF00023F0FF03C0B21843C2F82405FFF79ABAE2
:10100000750200200010004010B419B15DF8044BC7
:10101000FFF76ABE08465DF8044B704710B50A4CEE
:1010200023688342237B1BBF20606FF34713203369
:10103000237308BF237323680BB11B68984701F023
:10104000D7FA606010BD00BF640200200148FFF7BE
:10105000E5BF00BF080000200148FFF7DFBF00BF69
:101060001800002008B501F0C3FA024B5B68C01AF3
:1010700008BD00BF6402002008B50B4B1B78FF2B96
:1010800004D00A48BDE80840FFF7C8BFFFF7EAFFF1
:10109000B0F5FA6F06D9064B1B7B5F2B94BF054852
:1010A0000548EFE708BD00BF7702002028000020B8
:1010B000640200200800002030000020024B1B6862
:1010C0000BB15B681847704764020020044B587BE3
:1010D00000F07000A0F1700358425841704700BF03
:1010E0006402002008B5FFF7BDFF0246FFF7EEFFE0
:1010F0004EF6602342F21071002814BF18460846CD
:10110000824204D90248BDE80840FFF787BF08BD06
:1011100010000020044B05485A7B6FF306125A73E7
:1011200000221A60FFF77ABF64020020100000203E
:10113000431EDBB2FD2B10B5044609D8054B1870D1
:10114000FFF74EFF00202146FFF7F0FC012010BD05
:101150000020FCE77702002010B5FFF723F920B943
:101160000E48BDE81040FFF759BF0D4A0D4C137BE8
:1011700043F010031373E378642143F0010300206C
:10118000E3702170FFF7D2FC2078FF2801D10648D8
:10119000E7E7FFF7CDFF0028F9D1E1E730000020B5
:1011A000640200207702002020000020037923F051
:1011B000080343EAC10101717047C37823F00303B8
:1011C00043F00203C370704710B50021044601705C
:1011D00041708170C1700171417181711A220730B3
:1011E00002F0D0F82046BDE81040FFF7E6BF0379D3
:1011F00001F0070123F007030B4303717047000060
:1012000038B50B4D82712D789DF81020427104463F
:10121000457081701946FFF7EAFF9DF814102046CB
:10122000FFF7C4FF237923F010032371204638BD54
:1012300077020020C078C008192828BF19207047FD
:1012400010B50E4B1A780A70CA785207044610D4AB
:101250000846FFF7EFFFC21DD2B2DB78D8070AD4E9
:10126000A4F1FF00434243412046BDE81040FFF790
:10127000CBBE2022F1E70123F6E700BF7702002072
:1012800070B5154D2B7BDB070646807803D5FF280C
:1012900020D1044602E080B9104B5C7831462046EC
:1012A000FFF7CEFF0D4B5B78A3420DD16B7B60B98E
:1012B0005A1C62F303036B7306E0FF28E9D0314642
:1012C000FFF7BEFF0028E7D070BD6FF303036B7319
:1012D0000120F9E70020F7E76402002077020020F0
:1012E000044B1B7BC3F380030BB1FFF7C9BF184648
:1012F000704700BF6402002008B5C3785B0704D4C0
:10130000FFF798FF0730C0B208BD1920FAE7F0B523
:101310008BB004460E46FFF739F901AA054623466D
:1013200004F1200C174618685968144603C40833A2
:1013300063452246F7D11B7823709DF8073003F0F0
:101340000303022B0BD13846FFF774FF3070384689
:10135000FFF7D2FF431B584258410BB0F0BD0020AD
:10136000FBE7C378192928BF192103F0070343EAD3
:10137000C103C370704703795B090CBF07300020BD
:10138000704708B503795B11012B01D1C07908BD05
:1013900023B9073001F043FFC0B2F8E70020F6E7B9
:1013A00008B5FFF7EEFF003018BF012008BD08B5F3
:1013B00003795B11072B02D1D0F8070008BD2BB9C8
:1013C000073001F029FF01F0D7FEF7E70020F5E72D
:1013D00003795B11052B02D1D0F80700704713B9D0
:1013E000073001F020BF0020704708B503795B117A
:1013F000022B02D1B0F9070008BD23B9073001F074
:101400000EFF00B2F8E70020F6E708B503795B119C
:10141000032B02D1B0F8070008BD23B9073001F053
:10142000FEFE80B2F8E70020F6E738B504460D4628
:1014300019B1084602F0F6FCC1B22046FFF791FF51
:10144000237903F01F0323712046FFF7F3FE29469B
:101450000246E01D02F000FD2046FFF7EBFE2044AF
:101460000023C371204638BD07B50B4B1A78FF2AFD
:101470000ED103230021CDE900310848FFF7C0FE5B
:101480000749FFF7D2FF03B05DF804EBFFF7F8BEA2
:1014900003B05DF804FB00BF77020020D9060020EE
:1014A000C66C000010B50C4601210246FFF759FF3B
:1014B0001379D47103F01F0343F020031371104616
:1014C00010BD10B50C4604210246FFF74AFF137900
:1014D000C2F8074003F01F0363F05F031371104667
:1014E00010BD10B50C4602210246FFF73AFF1379F2
:1014F000A2F8074003F01F0343F0400313711046A6
:1015000010BD00002DE9F047164E174F10254FF083
:10151000000AB0466B10EA07F35C4CBF03F00F0300
:101520001B09072B0ED818F803A03846514600F0C7
:101530000DFC0135F22DEDD10C490B48BDE8F0470B
:1015400000F00EBC053BDCB24FF0000951463846B6
:1015500009F1010900F0FAFB5FFA89F39C42F5D822
:10156000E7E700BFB16B00000C070020956B00009F
:1015700008B50749074800F007FC0121082001F0E1
:10158000D3F801210820BDE8084001F0F5B800BFFC
:101590002A6C00000C070020FFF7A2BE37B50546F5
:1015A000FFF760FD162304460093FF2203230195F5
:1015B00000210548FFF724FE2146FFF782FF03B014
:1015C000BDE83040FFF78CBED906002037B5CDE925
:1015D0000013002319460446154602460648FFF745
:1015E0000FFE0649FF2C18BF2946FFF71EFF03B068
:1015F000BDE83040FFF774BED90600209C6B0000A8
:1016000073B50D461646044610B30B2301920093A2
:10161000FF22032300210F48FFF7F2FD2146FFF7C9
:1016200004FFFFF75DFE04467DB10C23FF2200930B
:101630000021032301960748FFF7E2FD2946FFF743
:10164000F4FEFFF74DFE0440E4B2204602B070BD48
:101650000124E9E7D906002010B50022094C0A4907
:101660000A48FFF7CDFF0023224606211846FFF760
:10167000ADFF2246002306210120BDE81040FFF700
:10168000A5BF00BFC66C0000786B00007E6B000039
:10169000024B034AC3F8002600F0E6BF00000140F9
:1016A0003546526E7047000030B50D4685B01F4973
:1016B000044600F0AEFE2B795B11013B2846062B59
:1016C00005D8DFE803F00D1C241C24272A00FFF7AF
:1016D00052FE0146204600F01CFF204605B030BDFA
:1016E000FFF74FFE0A22014601A800F0B1FE01A952
:1016F000204600F006FF01A800F046FEEDE7FFF7E8
:1017000074FE01460A2201A800F0B3FEEFE7FFF7DE
:101710007CFEF6E7FFF744FEF3E7FFF748FE022200
:10172000014601A800F0FFFEE1E700BF8F6B00005B
:1017300030B50379DB068DB0044644D50A224178E2
:1017400003A800F085FE03A9684600F0D0FE1F49FB
:10175000684600F025FF0A220546A17906A800F098
:1017600077FE06A9284600F00FFF184900F018FF81
:101770002146054609A8FFF797FF09A9284600F06A
:1017800003FF134900F00CFF0146124800F0A0FED1
:1017900009A800F0F9FD06A800F0F6FD684600F083
:1017A000F3FD03A800F0F0FD0B4909A800F031FE9D
:1017B000084909A800F0E8FE0146084800F0DAFAF6
:1017C00009A800F0E1FD0DB030BD00BFA26B000024
:1017D000A46B000000070020A66B00000C0700208F
:1017E0002DE9FF47554C0DF10F012046FFF78FFD06
:1017F00000285CD02046FFF71DFD514922794B7B24
:1018000094F802A06579677894F800E043F08003CB
:101810004B734C4B93F800C0D44502F007080E46BA
:10182000994662D120440023C371130717D5464B54
:10183000214604F1200E184651F8049B43F8049BFE
:101840007145F9D122F018020978197042F010029E
:10185000027180F801C087703B48FFF741FD237992
:10186000DC063ED4B8F1030F3BD13448FFF7C6F98C
:101870000146E0B9042D1AD0182D0CD1192301907E
:10188000009339464346FF222F48FFF7B9FC012158
:10189000FFF708FE1EE0192D0CD1337B180706D583
:1018A00061F3C30325483373FFF76BFDB07304B0D6
:1018B000BDE8F0871E2DFAD01D2D0ED11F230190FB
:1018C0000093FF2243462048FFF79AFC6FF0FF0188
:1018D000FFF707FEFFF7D4FCE9E700F005F9002861
:1018E000E5D11648FFF724FFE1E7BAF1FF0FDED19B
:1018F000B8F1030F1DD10B7B590701D5072DD6D0A9
:10190000142DD4D199F801307345D0D100F070FE78
:10191000C0F3090000F086FE15230022CDE9003255
:1019200039460323FF220848FFF76AFC99F80110A3
:10193000AEE75B787345BAD1D3E700BFB8060020A5
:101940006402002077020020D9060020084B1B7B90
:10195000DB0610B50AD50624FEF716FD30B1013CB2
:1019600014F0FF0402D0FFF73BFFF5E710BD00BF06
:101970006402002008B5FFF7A1FBBDE80840FFF7AF
:10198000E5BF0000F8B5054600F032FE0A4E0746F6
:1019900000F02EFEC01BA84203D315B10024204640
:1019A000F8BDFFF7E7FF347BC4F38004FFF770FE58
:1019B000002CEDD0F3E700BF6402002008B5FFF76C
:1019C00067FEBDE80840FFF7D5BF00002DE9F843EA
:1019D000114C80468946164600F00AFE237923F012
:1019E000070343F0070307462371002500F000FEBC
:1019F000C01B40450CD25DB9FFF7E0FF237903F02F
:101A000007039945F2D16579AB1B5D425D41EDE776
:101A10002846BDE8F88300BFB8060020F7B50026C9
:101A20000F250323FF22CDE9005604460F46FFF79A
:101A3000E7FB0F49FFF7F9FC02212046FFF791FC75
:101A40002379267203F01F0363F03F032371012300
:101A5000E3712046FFF744FC47B92A4603214FF4BF
:101A6000FA6003B0BDE8F040FFF7B0BF03B0F0BDCF
:101A7000C66C000037B5124D00212846FFF7CEFF97
:101A80000023104A1121FF20FFF7A0FD06240021AA
:101A9000FF22CDE9004103232846FFF7B1FB0A4BA3
:101AA0005978FFF7FFFCFFF777FD224603214FF43B
:101AB000FA60FFF78BFFFFF7CFFD03B030BD00BF2B
:101AC000D9060020C66C00007702002010B5054C36
:101AD00063789B0705D4FFF7CDFF637843F00303DA
:101AE000637010BD4002002013B526484178447948
:101AF000002944D10D2C01D1FEF7DCFB1B2C0ED0AC
:101B0000062C10D1C37963B1A3F14D025342534166
:101B10001D48012240F203110370FEF7FFFF01246C
:101B200023E00123F4E7132C02D1FFF7A3FFF6E72C
:101B3000122C03D10846FFF731FDF0E7022C0CD13F
:101B4000CDE900410323FF221048FFF759FB10495C
:101B5000FFF7B7FCFFF720FDE1E7012C08D10D4AA4
:101B60001AB1FFF735FCAFF30080204602B010BD7C
:101B70000A2CD4D01C2C14BF00240124F5E71A2C05
:101B8000F9E700BFB806002040020020D906002077
:101B9000FF0203020000000010B51148FEF7F6FF37
:101BA000104B14221A70104A5A60EFF3108272B66A
:101BB00000211972597282F310880C4C0C48FFF7FF
:101BC00003FB0C48FFF700FB0B49204600F021FC0B
:101BD00020460A4A0A49BDE8104000F013BE00BF83
:101BE000900500207C0200208902002000070020D0
:101BF000B8060020D9060020C66C000000000020B6
:101C0000892300004FF08043002210B5C3F8002163
:101C100001221A60D3F80021002AFBD001249C671E
:101C2000074B0848C3F84045A3F5E0334FF4E131D2
:101C30005C60DC60DC6100F01DFA204610BD00BF76
:101C400000E001400C070020194A38B5194CC2F8D1
:101C50000046194A0AB1AFF30080FFF7D3FF0546EB
:101C6000FFF750FC15B9FFF713FDFCE7134B5A784B
:101C70006FF341025A70124B0BB1AFF30080012297
:101C800040F203110D48FEF72FFFFF210120FEF760
:101C90004DFFFFF73FFA0B4B0B4A1A600020FFF78E
:101CA00071FEFFF765FC024BC3F8004638BD00BF6C
:101CB000000001403546526E000000004002002046
:101CC00000000000FC060020CD1A000008B500F05E
:101CD000CDFCFFF7B9FF054CFFF770FEFFF7E2FC04
:101CE000002CF9D0AFF30080F6E700BF0000000041
:101CF0002DE9F04106460D4601EB02080C4644452D
:101D0000A4EB050707D0336814F8011B1B683046A5
:101D100098470028F3D13846BDE8F08170B50446F5
:101D200008460D4602F07EF8236802462946204602
:101D30005B68BDE87040184709B1FFF7EFBF084680
:101D4000704703688A685B680968184703681B68FE
:101D5000184700000149FFF7E1BF00BFC46C000055
:101D600038B50546FFF7E8FF04462846FFF7F2FFBF
:101D7000204438BD38B50546FFF7E3FF0446284642
:101D8000FFF7E8FF204438BD38B50546FFF7D4FF1C
:101D900004462846FFF7DEFF204438BD0649074ABF
:101DA000074B9B1A03DD043BC858D050FBDC00F006
:101DB0003FF8FEF745FA00005470000000000020D4
:101DC00020020020FEE7FEE7FEE7FEE7FEE7FEE773
:101DD000FEE7FEE7FEE7FEE7044B1868421C04BF7F
:101DE000034B1878831F5842584170473001001048
:101DF000E00F00F0074B1B78062B09D1064B1B6840
:101E0000C3F30313033B032B02D8044AD05C70478F
:101E100000207047E00F00F0E80F00F0CB6C0000EE
:101E2000024AD2F80034002BFBD0704700E001409A
:101E300010B5FFF7D1FF28B1774B784A1B68C3F381
:101E400004231360FFF7D6FF10B1754B754A1A6073
:101E5000FFF7C2FF28B1744B744A1B68C3F34233C7
:101E60001360FFF7C7FF20B1714AD36823F0807376
:101E7000D360FFF7B1FF40B14FF080430022C3F8B9
:101E80000C21C3F81021C3F83825FFF7B3FF10B1B8
:101E9000684B03221A60FFF7ADFF40B1664B052285
:101EA0001A6001229A6700229A603F225A60634BAF
:101EB0001A68511C0BBF624B624B1A781B6802BF39
:101EC00008331B68C3F30313062A4DD1033B032BCE
:101ED00003D85D4AD35C002B46D04FF080525B4B59
:101EE000D2F80414C3F82015D2F80814C3F8241546
:101EF000D2F80C14C3F82815D2F81014C3F82C1516
:101F0000D2F81414C3F83015D2F81814C3F83415E5
:101F1000D2F81C14C3F84015D2F82014C3F84415A5
:101F2000D2F82414C3F84815D2F82814C3F84C1575
:101F3000D2F82C14C3F85015D2F83014C3F8541545
:101F4000D2F83414C3F86015D2F83814C3F8641505
:101F5000D2F83C14C3F86815D2F84014C3F86C15D5
:101F6000D2F84424C3F87025FFF736FF28B1384B68
:101F7000384A1B6803F04F031360FFF72DFF48B189
:101F80004FF08043D3F80024D20744BF6FF0010222
:101F9000C3F80024294B1B68062B09D1294B1B6869
:101FA000033B022B81BF2C4A136843F48063136008
:101FB0002A49D1F8883043F47003C1F88830BFF360
:101FC0004F8FBFF36F8F4FF01020D0F80C32DB072C
:101FD0001ED5234C0123C4F80435FFF721FFD0F8A8
:101FE0000C3223F00103C0F80C32FFF719FF002375
:101FF000C4F80435FFF714FFBFF34F8FCA68194BBD
:1020000002F4E0621343CB60BFF34F8F00BFFDE7E4
:10201000154B164A1A6010BD2403001040350140CC
:1020200074C007400DF0ADBA440200103C050040FA
:10203000F0ED00E0A0050040105600403001001017
:10204000E00F00F034010010C76C000000C0004039
:1020500058020010E40E00403C17004000ED00E084
:1020600000E001400400FA05380000200090D00391
:102070000120704703681322DB6918477047036922
:10208000C3F81C150369D3F81C21002AFBD00022D9
:10209000C3F81C210120704710B490F95C30144C37
:1020A00059090122203103F01F0302FA03F344F817
:1020B000213003695DF8044B0421C3F80813036958
:1020C0005A600369DA6003690022C3F800250269D7
:1020D0004FF0FF33C2F80C350269C2F814350269BB
:1020E000C2F8083502691430C2F8103500F06ABB36
:1020F00000E100E0143000F077BB143000F07ABB50
:10210000143000F063BB0000036990F85E2010B546
:10211000C3F80C25036990F85D20C3F8142590F8E6
:1021200061200369012A01BF90F85F40C3F81045A0
:10213000036990F8604006BFC3F8084503690022B0
:10214000B1F5966FC3F86C2569D9B1F5166F69D9E9
:10215000B1F5965F69D9B1F5165F68D9B1F5615FE0
:1021600067D9B1F5964F66D9B1F5E14F65D9B1F5AB
:10217000164F64D9B1F5614F64D9B1F5963F64D972
:10218000B1F5E13F63D9B1F5613F63D9364B99426F
:1021900063D9B1F5E12F63D9B1F5612F94BF4FF049
:1021A00070634FF080530269C2F82435036904223A
:1021B000C3F8002501690023C1F808310169C1F89D
:1021C0001C31016901230B6001698B600169C1F851
:1021D000042390F95C20510902F01F029340603102
:1021E000224A42F8213090F95C30002BBDBF03F049
:1021F0000F0302F6FC32D2189B18B5BF6023602291
:10220000137683F8002390F95C300122590903F01A
:102210001F0302FA03F3154A42F8213010BD4FF4B0
:102220009E23C0E74FF41D23BDE7114BBBE7114BC5
:10223000B9E7114BB7E7114BB5E7114BB3E74FF4D3
:102240001D03B0E74FF46B03ADE70E4BABE74FF068
:10225000EB73A8E74FF06C73A5E74FF08063A2E73C
:102260004FF0E8639FE700BF90D0030000E100E07B
:1022700000B013000050270000F03A0000A04E000C
:1022800000C0750000903A012DE9F0411E4600257E
:102290004FF47A73C0E901530D4B044640F8143BE8
:1022A0001746884600F07AFA0A4AC4F8108084F883
:1022B0005C7052F8263084F85D309DF8183052F882
:1022C000233084F85E3084F861502046BDE8F08108
:1022D000D86C00005C6C000010B50369D3F80821CD
:1022E00004464AB1D3F818151430C9B200F05FFAA9
:1022F00023690022C3F8082110BD00000148FFF740
:10230000EBBF00BF0C07002007B519230093022282
:10231000182303490348FFF7B7FF03B05DF804FB38
:10232000002000400C0700202DE9F341134E144F0C
:10233000DFF85080002505F1805404F5C254A40054
:102340002368012B14D1D6F80423AB4013420FD0DD
:10235000EB57013307D004F14043A3F5C24353F8D0
:10236000083003B198470023236023680193019B41
:102370000135082DDFD102B0BDE8F08100600040DA
:10238000900700207007002010B50446006800F098
:10239000BBFF204610BD10B50446006808B100F030
:1023A000B3FF00232360C4E9013310BD38B50446F0
:1023B0000D460068013101F0F5FC10B1C4E90005DB
:1023C000012038BD036810B5044623B143688B4231
:1023D00001D3012010BD2046FFF7E8FF0028F9D007
:1023E000A368002BF5D122681370F2E770B50E4692
:1023F000114604461546FFF7E5FF20B92046FFF7D2
:10240000CAFF204670BDA5603146206801F002FD7C
:10241000F7E738B500230446C0E9003383600D4672
:1024200039B1084601F0FEFC294602462046FFF776
:10243000DDFF204638BD38B5054608460C4601F09C
:10244000F1FC214602462846BDE83840FFF7CEBFE2
:102450001FB504460023C4E90033A360084601A960
:1024600002F006FC204601A9FFF7E5FF204604B074
:1024700010BD10B504468AB00023C4E90033A36040
:10248000084601A900F032FF204601A9FFF7D3FF5B
:1024900020460AB010BD38B5054600680C4668B144
:1024A0006A688B689A4207D3096801F0B3FCA36895
:1024B000AB600023A36038BD00F026FF23682B60CB
:1024C00063686B60A368AB600023C4E90033F1E785
:1024D000884210B50B46044604D0096821B19A68B9
:1024E000FFF784FF204610BDFFF755FFFAE710B550
:1024F00000230446C0E900338360FFF7E9FF20466C
:1025000010BD884210B5044601D0FFF7C4FF204635
:1025100010BD10B5044619B1FFF78DFF204610BD60
:10252000FFF739FFFAE770B5044600208CB0C4E924
:102530000000A060951C084616466DB200F0CCFA6B
:1025400003AB00932A46334600F03EF8014620468E
:10255000FFF7DFFF20460CB070BD70B505460E4694
:1025600009B9002070BD6AB1846814442146FFF7A0
:1025700029FF0028F5D02868AB683146184401F0DF
:1025800049FCAC600120EDE710B58A680968044693
:10259000FFF7E3FF10B92046FFF7FDFE204610BD10
:1025A00038B504460D4621B92046FFF7F4FE204613
:1025B00038BD084601F036FC294602462046FFF7A2
:1025C000CCFF0028F0D0F2E730B5044687B00D46C6
:1025D000064901A801F0FEFB22462B4601A90A98F4
:1025E00001F0F8FB0A9807B030BD00BF006D000095
:1025F0000A4B19680A4B30B5D3F804050C060D0ACE
:1026000044EA00024FF47A712B46A2FB014501FB1C
:102610000355E00B40EA454030BD00BF980700205D
:102620000010014038B5044648B1FFF7E1FF054608
:1026300000F01AF8FFF7DCFF401BA042F8D338BDCA
:10264000074B0022C3F8042182B0D3F80431054AB5
:102650000193019B13680133DBB2136002B0704732
:102660000010014098070020704700002A4BE0222C
:1026700083F811234FF40032C3F880211A604FF021
:1026800080430122C3F818259A6003F5883300219E
:10269000C3F808150221C3F80413C3F844131A60E1
:1026A0004FF01023D3F80022002A03DBD3F80432C2
:1026B000002B2FDA194B0122C3F80425D3F800248C
:1026C000002AFBD04FF010221521C2F80012D3F8D7
:1026D0000024002AFBD04FF010231522C3F8042257
:1026E0000E4B1A46D3F800140029FBD00021C3F882
:1026F0000415D2F80034002BFBD0BFF34F8F0849EC
:10270000084BCA6802F4E0621343CB60BFF34F8FFB
:1027100000BFFDE7704700BF00E100E000E00140BE
:1027200000ED00E00400FA0519280FD8114B53F80A
:10273000203003290AD8DFE801F002160A1003F559
:10274000E0734FF0A042002142F82310704703F5D8
:10275000E0734FF0A0420C21F6E703F5E0734FF071
:10276000A0420421F0E703F5E0734FF0A0420321FB
:10277000EAE700BF5C6C000019280CD8064B53F840
:102780002020012393404FF0A04211B9C2F80C352C
:102790007047C2F8083570475C6C000008B54022ED
:1027A000002100F0EFFD0022C0E9102208BD026CFC
:1027B00010B5531C446C03F03F039C421CBF815472
:1027C000036410BD0023C0E910337047D0E9102323
:1027D00093421FBFC25C013303F03F03436414BF45
:1027E00010464FF0FF307047D0E91030181A48BF3C
:1027F00040307047D0E91023934214BFC05C4FF0C3
:10280000FF3070470B460146184600F011BD00002E
:1028100081F0004102E000BF83F0004330B54FEA91
:1028200041044FEA430594EA050F08BF90EA020FFE
:102830001FBF54EA000C55EA020C7FEA645C7FEA91
:10284000655C00F0E2804FEA5454D4EB5555B8BFB4
:102850006D420CDD2C4480EA020281EA030382EA25
:10286000000083EA010180EA020281EA0303362DB7
:1028700088BF30BD11F0004F4FEA01314FF4801C8A
:102880004CEA113102D0404261EB410113F0004F9C
:102890004FEA03334CEA133302D0524263EB430353
:1028A00094EA050F00F0A780A4F10104D5F1200EF1
:1028B0000DDB02FA0EFC22FA05F2801841F100014C
:1028C00003FA0EF2801843FA05F359410EE0A5F120
:1028D00020050EF1200E012A03FA0EFC28BF4CF051
:1028E000020C43FA05F3C01851EBE37101F0004507
:1028F00007D54FF0000EDCF1000C7EEB00006EEB14
:102900000101B1F5801F1BD3B1F5001F0CD349089D
:102910005FEA30004FEA3C0C04F101044FEA4452F4
:1029200012F5800F80F09A80BCF1004F08BF5FEA7B
:10293000500C50F1000041EB045141EA050130BD5B
:102940005FEA4C0C404141EB010111F4801FA4F1FE
:102950000104E9D191F0000F04BF01460020B1FA53
:1029600081F308BF2033A3F10B03B3F120020CDA8B
:102970000C3208DD02F1140CC2F10C0201FA0CF069
:1029800021FA02F10CE002F11402D8BFC2F1200CCE
:1029900001FA02F120FA0CFCDCBF41EA0C01904084
:1029A000E41AA2BF01EB0451294330BD6FEA0404CD
:1029B0001F3C1CDA0C340EDC04F11404C4F12002B8
:1029C00020FA04F001FA02F340EA030021FA04F3CA
:1029D00045EA030130BDC4F10C04C4F1200220FA21
:1029E00002F001FA04F340EA0300294630BD21FA5F
:1029F00004F0294630BD94F0000F83F4801306BF25
:102A000081F480110134013D4EE77FEA645C18BF18
:102A10007FEA655C29D094EA050F08BF90EA020FAF
:102A200005D054EA000C04BF1946104630BD91EAA7
:102A3000030F1EBF0021002030BD5FEA545C05D1AA
:102A40004000494128BF41F0004130BD14F58004E9
:102A50003CBF01F5801130BD01F0004545F0FE415D
:102A600041F470014FF0000030BD7FEA645C1ABF92
:102A7000194610467FEA655C1CBF0B46024650EAC9
:102A8000013406BF52EA033591EA030F41F40021F5
:102A900030BD00BF90F0000F04BF0021704730B57B
:102AA0004FF4806404F132044FF000054FF0000150
:102AB00050E700BF90F0000F04BF0021704730B511
:102AC0004FF4806404F1320410F0004548BF4042E6
:102AD0004FF000013EE700BF42004FEAE2014FEA3B
:102AE00031014FEA02701FBF12F07F4393F07F4F16
:102AF00081F06051704732F07F4208BF704793F019
:102B00007F4F04BF41F40021704730B54FF460742B
:102B100001F0004521F000411CE700BF50EA01022E
:102B200008BF704730B54FF000050AE050EA0102D7
:102B300008BF704730B511F0004502D5404261EB47
:102B400041014FF4806404F132045FEA915C3FF488
:102B5000D8AE4FF003025FEADC0C18BF03325FEA25
:102B6000DC0C18BF033202EBDC02C2F1200300FAD6
:102B700003FC20FA02F001FA03FE40EA0E0021FAFB
:102B800002F11444BDE600BF70B54FF0FF0C4CF4E9
:102B9000E06C1CEA11541DBF1CEA135594EA0C0F9B
:102BA00095EA0C0F00F0DEF82C4481EA030621EAD6
:102BB0004C5123EA4C5350EA013518BF52EA033511
:102BC00041F4801143F4801338D0A0FB02CE4FF0C3
:102BD0000005E1FB02E506F00042E0FB03E54FF0F3
:102BE0000006E1FB03569CF0000F18BF4EF0010EEB
:102BF000A4F1FF04B6F5007F64F5407404D25FEAE7
:102C00004E0E6D4146EB060642EAC62141EA555199
:102C10004FEAC52040EA5E504FEACE2EB4F1FD0CDB
:102C200088BFBCF5E06F1ED8BEF1004F08BF5FEA59
:102C3000500E50F1000041EB045170BD06F000460B
:102C400046EA010140EA020081EA0301B4EB5C04B8
:102C5000C2BFD4EB0C0541EA045170BD41F48011B0
:102C60004FF0000E013C00F3AB8014F1360FDEBFD5
:102C7000002001F0004170BDC4F10004203C35DAB1
:102C80000C341BDC04F11404C4F1200500FA05F334
:102C900020FA04F001FA05F240EA020001F00042D5
:102CA00021F0004110EBD37021FA04F642EB06014B
:102CB0005EEA430E08BF20EAD37070BDC4F10C0475
:102CC000C4F1200500FA04F320FA05F001FA04F239
:102CD00040EA020001F0004110EBD37041F1000125
:102CE0005EEA430E08BF20EAD37070BDC4F1200530
:102CF00000FA05F24EEA020E20FA04F301FA05F298
:102D000043EA020321FA04F001F0004121FA04F23F
:102D100020EA020000EBD3705EEA430E08BF20EA0F
:102D2000D37070BD94F0000F0FD101F00046400049
:102D300041EB010111F4801F08BF013CF7D041EACB
:102D4000060195F0000F18BF704703F000465200CF
:102D500043EB030313F4801F08BF013DF7D043EAA0
:102D60000603704794EA0C0F0CEA135518BF95EA56
:102D70000C0F0CD050EA410618BF52EA4306D1D1DD
:102D800081EA030101F000414FF0000070BD50EAFC
:102D9000410606BF1046194652EA430619D094EA86
:102DA0000C0F02D150EA013613D195EA0C0F05D170
:102DB00052EA03361CBF104619460AD181EA0301C4
:102DC00001F0004141F0FE4141F470014FF000007C
:102DD00070BD41F0FE4141F4780170BD70B54FF017
:102DE000FF0C4CF4E06C1CEA11541DBF1CEA135597
:102DF00094EA0C0F95EA0C0F00F0A7F8A4EB050479
:102E000081EA030E52EA03354FEA013100F088806F
:102E10004FEA03334FF0805545EA131343EA126338
:102E20004FEA022245EA111545EA10654FEA0026ED
:102E30000EF000419D4208BF964244F1FD0404F5A6
:102E4000407402D25B084FEA3202B61A65EB030502
:102E50005B084FEA32024FF480104FF4002CB6EBBF
:102E6000020E75EB030E22BFB61A754640EA0C003F
:102E70005B084FEA3202B6EB020E75EB030E22BF7F
:102E8000B61A754640EA5C005B084FEA3202B6EBC0
:102E9000020E75EB030E22BFB61A754640EA9C007F
:102EA0005B084FEA3202B6EB020E75EB030E22BF4F
:102EB000B61A754640EADC0055EA060E18D04FEA0D
:102EC000051545EA16754FEA06164FEAC30343EAAD
:102ED00052734FEAC2025FEA1C1CC0D111F4801F7A
:102EE0000BD141EA00014FF000004FF0004CB6E773
:102EF00011F4801F04BF01430020B4F1FD0C88BF12
:102F0000BCF5E06F3FF6AFAEB5EB030C04BFB6EB1C
:102F1000020C5FEA500C50F1000041EB045170BD0F
:102F20000EF0004E4EEA113114EB5C04C2BFD4EB3C
:102F30000C0541EA045170BD41F480114FF0000EC0
:102F4000013C90E645EA060E8DE60CEA135594EA3C
:102F50000C0F08BF95EA0C0F3FF43BAF94EA0C0F3F
:102F60000AD150EA01347FF434AF95EA0C0F7FF4B4
:102F700025AF104619462CE795EA0C0F06D152EA08
:102F800003353FF4FDAE1046194622E750EA4106EC
:102F900018BF52EA43067FF4C5AE50EA41047FF4FD
:102FA0000DAF52EA43057FF4EBAE12E74FF0FF3C62
:102FB00006E000BF4FF0010C02E000BF4FF0010C33
:102FC0004DF804CD4FEA410C7FEA6C5C4FEA430CAC
:102FD00018BF7FEA6C5C1BD001B050EA410C0CBFFB
:102FE00052EA430C91EA030F02BF90EA020F00205D
:102FF000704710F1000F91EA030F58BF994208BFC4
:1030000090422CBFD8176FEAE37040F00100704780
:103010004FEA410C7FEA6C5C02D150EA013C07D1D7
:103020004FEA430C7FEA6C5CD6D152EA033CD3D022
:103030005DF8040B704700BF8446104662468C461C
:103040001946634600E000BF01B5FFF7B7FF00284F
:1030500048BF10F1000F01BD4DF808EDFFF7F4FF78
:103060000CBF012000205DF808FB00BF4DF808ED03
:10307000FFF7EAFF34BF012000205DF808FB00BF26
:103080004DF808EDFFF7E0FF94BF012000205DF848
:1030900008FB00BF4DF808EDFFF7CEFF94BF0120FD
:1030A00000205DF808FB00BF4DF808EDFFF7C4FFF6
:1030B00034BF012000205DF808FB00BF4FEA410C3F
:1030C0007FEA6C5C02D150EA013C0AD14FEA430C22
:1030D0007FEA6C5C02D152EA033C02D14FF000005F
:1030E00070474FF0010070474FEA410212F500129D
:1030F00015D211D56FF47873B3EB625212D94FEA3F
:10310000C12343F0004343EA505311F0004F23FA28
:1031100002F018BF404270474FF00000704750EA7D
:10312000013005D111F0004008BF6FF0004070473A
:103130004FF00000704700BF4A0011D212F5001294
:1031400011D20DD56FF47873B3EB62520ED44FEAFF
:10315000C12343F0004343EA505323FA02F070477F
:103160004FF00000704750EA013002D14FF0FF30BD
:1031700070474FF0000070474FEA4102B2F1E04360
:1031800024BFB3F5001CDCF1FE5C0DD901F0004C4E
:103190004FEAC0024CEA5070B2F1004F40EB83009E
:1031A00008BF20F00100704711F0804F21D113F1CA
:1031B0003872BCBF01F00040704741F480114FEA03
:1031C0005252C2F11802C2F1200C10FA0CF320FA8C
:1031D00002F018BF40F001004FEAC1234FEAD323A9
:1031E00003FA0CFC40EA0C0023FA02F34FEA430313
:1031F000CCE77FEA625307D150EA01331EBF4FF09C
:10320000FE4040F44000704701F0004040F0FE40B6
:1032100040F40000704700BF002101F045BC0A22C5
:10322000002101F0D1BC0A22002101F0CDBC000038
:1032300010B5054C13462CB10A4601460220AFF3E7
:10324000008010BD2046FCE70000000008B5074BD9
:10325000044613B10021AFF30080054B1868836A60
:1032600003B19847204603F079FC00BF000000003E
:103270000C6D000070B50D4E0D4CA41BA410002564
:10328000A54209D10B4E0C4C03F06AFCA41BA41000
:103290000025A54205D170BD56F825309847013567
:1032A000EEE756F8253098470135F2E70C0200208A
:1032B0000C0200200C02002018020020931E222B7A
:1032C00010B50C4604D900230B701C46204610BDD7
:1032D0000A2A09D1002807DA2D230B704042012168
:1032E000214401F087FCF1E70021F9E7FFF7E6BF91
:1032F000D0F8EC0070470000024B0146186800F05F
:1033000097B800BF3C000020024B0146186800F04F
:1033100041B800BF3C00002082B001B901A942B110
:103320004BB113780B601278101C18BF012002B04B
:1033300070471046FBE76FF00100F8E710B5431E39
:103340000A44914200D110BD11F8014B03F8014F1E
:10335000F7E7884210B501EB020307D8421E9942F5
:103360000AD011F8014B02F8014FF8E78342F5D972
:103370008118D21AD34200D110BD13F8014D01F8C3
:10338000014DF7E702440346934200D1704703F82A
:10339000011BF9E738B50546002945D051F8043C32
:1033A0000C1F002BB8BFE41802F042FE1F4A13683E
:1033B000104633B9636014602846BDE8384002F017
:1033C00038BEA3420CD921686218934204BF1A6820
:1033D0005B68636004BF521822600460ECE7134628
:1033E0005A680AB1A242FAD919685818A0420BD1FA
:1033F00020680144581882421960DDD11068526873
:103400005A6001441960D7E702D90C232B60D3E737
:10341000206821188A4204BF11685268626004BFA4
:10342000091821605C60C7E738BD00BF9C07002019
:1034300070B5CD1C25F0030508350C2D38BF0C25C3
:10344000002D064601DBA94203D90C23336000207E
:1034500070BD02F0EDFD214A1468214691B9204C5F
:1034600023681BB9304600F0A5FC20602946304691
:1034700000F0A0FC431C24D10C233360304602F042
:10348000D8FDE4E70B685B1B18D40B2B0FD90B603E
:10349000CD50CC18304602F0CCFD04F10B00231DBA
:1034A00020F00700C31AD3D05A42E250D0E78C4232
:1034B0004B6816BF636013600C46EBE70C46496827
:1034C000CCE7C41C24F00304A04205D0211A3046E6
:1034D00000F070FC0130CFD02560DBE79C070020B6
:1034E000A00700202DE9F04788B0002B149F109E04
:1034F000DDE9121A1D4627F02007BBBF03F1004388
:103500001D4600232D231446B8BF1446462F0B70CA
:1035100004D0452F00D10136022300E0032307AA7F
:10352000049206AACDE902A2CDE9003622462B4636
:1035300001F03AFC472F804602D1119BDB0726D5CC
:10354000462F08EB060911D198F80030302B0AD12C
:103550000022002320462946FFF77EFD18B9C6F158
:103560000106CAF80060DAF800309944002200230E
:1035700020462946FFF770FD38B93022079B4B459E
:1035800005D2591C07911A70F8E7CDF81C90079BDB
:10359000159AA3EB08034046136008B0BDE8F08716
:1035A000F7B500290446BABF49422D232B23092928
:1035B00004F8022B437020DD0DF107031F460A2695
:1035C00091FBF6F506FB15113031092D03F8011CAE
:1035D00003F1FF32294609DC3031023B02F8011CBD
:1035E000BB42224604D3101A03B0F0BD1346E7E7EE
:1035F00013F8012B04F8012BF2E7302319448370F0
:10360000021DC170EFE700002DE9F04F91B00C46AC
:10361000DDF8688016461F46054602F0ABFC0368DD
:103620000893184600F0FEFB00230E93D8F80030F4
:103630000990073323F0070303F1080294F818A058
:10364000D4F800B0C8F80020D3E90023C4E912235D
:10365000D4E9128929F000430B93CDF828804FF06C
:10366000FF32A94BDDE90A01FFF728FD70BB4FF0DF
:10367000FF32A54BDDE90A01FFF702FD30BB002256
:10368000002340464946FFF7F1FC10B12D2384F892
:1036900043309E4A9E4BBAF1470F8CBF90469846E6
:1036A000032323612BF0040323604FF000090097EC
:1036B00033460FAA2146284600F0ECF9013040F0CD
:1036C00090804FF0FF3011B0BDE8F08F42464B467E
:1036D00040464946FFF7F2FC10B18E4A8E4BDAE7BE
:1036E0006368591C4BF480620EA90DA840D10623D3
:1036F00063600DF13303CDE901234FF0000C6368E3
:103700002260CDE9030A009342464B46CDE9051CF1
:103710002846FFF7E7FE0AF0DF03472B804609D172
:103720000D9BD81C02DB6268934247DDAAF1020AB6
:103730005FFA8AFABAF1650F0D9924D80139524619
:1037400004F150000D91FFF72BFF0E9A1318012A78
:103750008146236102DC2268D10701D50133236150
:103760009DF83330002BA2D02D2384F843309EE700
:10377000BAF1670F00F07881BAF1470FB9D1002B89
:10378000B7D10123B4E7BAF1660F19D100296368F4
:103790000CDD216113B92268D20702D501330B4435
:1037A00023610D9BA3654FF00009D9E713B9226887
:1037B000D00701D50233F3E70123F1E74FF0670AA1
:1037C000DDE90D32934205DB22682361D107E8D59C
:1037D0000133E5E7002BD4BFC3F1020301231344F7
:1037E000DEE723685A0507D4236942463146284656
:1037F000B84701302BD164E7BAF1650F40F2DD80A4
:1038000000220023D4E91201FFF726FC002833D060
:103810000123424A31462846B84701303FF451AFB0
:10382000DDE90D239A4202DB2368D8070FD5DDE9D5
:10383000082331462846B84701303FF442AF4FF0E5
:10384000000804F11A090E9B013B434509DC23687B
:103850009B0700F10481E0680F9B9842B8BF1846AF
:1038600031E701234A4631462846B84701303FF444
:1038700028AF08F10108E6E70D9B002B2BDC0123A4
:10388000264A31462846B84701303FF41AAF0D9B0F
:1038900023B90E9B13B92368D907D8D5DDE90823CE
:1038A00031462846B84701303FF40BAF4FF00009CE
:1038B00004F11A0A0D9B5B424B4501DC0E9B94E719
:1038C0000123524631462846B84701303FF4F9AE4D
:1038D00009F10109EEE70E9AA36D9A42A8BF1A46B4
:1038E000002A914607DD1346314642462846B8472E
:1038F00001303FF4E6AE04F11A034FF0000B29EA61
:10390000E9790A9316E000BFFFFFEF7F1E6D00000C
:103910001A6D0000266D0000226D00007C6B000017
:1039200001230A9A31462846B84701303FF4C9AE10
:103930000BF1010BD4F858A0AAEB09035B45EFDCAF
:10394000DDE90D239A42D04415DB2368DA0712D44F
:103950000E9B0D99A3EB0A02A3EB010A9245A8BFA7
:103960009246BAF1000F0EDC4FF000082AEAEA7A1C
:1039700004F11A0919E0DDE9082331462846B84761
:103980000130E5D19DE65346424631462846B847C8
:103990000130E9D195E601234A4631462846B84729
:1039A00001303FF48EAE08F10108DDE90D239B1ACA
:1039B000A3EB0A034345EEDC49E70E9A012A01DC3A
:1039C000DB073AD50123424631462846B847013045
:1039D0003FF477AEDDE9082331462846B847013089
:1039E00008F101083FF46DAE0E9B002203F1FF3A8F
:1039F000D4E912010023FFF72FFBC8B95346424612
:103A000031462846B84701300ED15AE601235246C6
:103A100031462846B84701303FF453AE08F101085B
:103A20000E9B013B4345F1DC4B4604F15002DDE6C1
:103A30004FF0000804F11A0AF2E70123DFE701233F
:103A40004A4631462846B84701303FF43AAE08F1BD
:103A50000108E3680F9A9B1A4345F0DCFBE64FF040
:103A6000000804F11909F4E7002B3FF48AAE4FF087
:103A7000000CCDE9051C0DF133012260CDE9030AEC
:103A8000CDE90121009342464B462846FFF72AFD27
:103A9000804645E62DE9F04791461F468A680B6946
:103AA000DDF820809342B8BF1346C9F8003091F882
:103AB000432006460C4612B10133C9F80030236892
:103AC000990642BFD9F800300233C9F800302568A2
:103AD00015F0060507D104F1190AE368D9F80020AA
:103AE0009B1AAB4228DC94F843302268003318BF9D
:103AF000012392062DD404F1430239463046C047D3
:103B0000013020D02368E568D9F8002003F00603CF
:103B1000042B08BFAD1AA36822690CBF25EAE5751E
:103B200000259342C4BF9B1AED184FF000091A34C8
:103B30004D451AD1002008E001235246394630464F
:103B4000C047013003D14FF0FF30BDE8F0870135A9
:103B5000C3E7E1185A1C302081F84300224494F84E
:103B6000451082F843100233C5E701232246394647
:103B70003046C0470130E6D009F10109D8E700001E
:103B80002DE9F04301F1430C0C46097E85B06E2906
:103B90001746064698460C9A00F0B38022D863294F
:103BA00036D00AD8002900F0B980582900F0838067
:103BB00004F1420584F8421032E0642901D06929F9
:103BC000F6D120681368050603F104012AD51B68A5
:103BD0001160002B03DA2D225B4284F843206F48EA
:103BE0000A2239E0732900F09D8008D86F2920D07F
:103BF0007029DDD1236843F02003236003E0752999
:103C000017D07829D4D1782384F84530644855E01A
:103C10001368191D1B68116004F1420584F84230D5
:103C200001238CE01B68116010F0400F18BF1BB21D
:103C3000CFE713682568181D1060280601D51B689A
:103C400002E06806FBD51B8854486F2914BF0A227E
:103C50000822002184F843106568A560002DC0F299
:103C60009580216821F004012160002B3DD1002DB9
:103C700040F08E806546082A0BD12368DB0708D503
:103C8000236962689A42DEBF302305F8013C05F1E2
:103C9000FF35ACEB05032361CDF800803B4603AA5A
:103CA00021463046FFF7F6FE01304DD14FF0FF3090
:103CB00005B0BDE8F083394884F8451013682168E1
:103CC0001D1D1B6815600A060BD5CA0744BF41F0CD
:103CD000200121601BB9226822F0200222601022FC
:103CE000B7E74D0648BF9BB2EFE76546B3FBF2F17D
:103CF00002FB1133C35C05F8013D0B460029F5D1E9
:103D0000B9E7136825686169181D106028061B68EB
:103D100001D5196002E06A06FBD5198000232361F2
:103D20006546B9E71368191D11601D6862680021B6
:103D3000284602F02DF908B1401B606063682361DA
:103D4000002384F84330A7E723692A4639463046E2
:103D5000C0470130AAD023689B0713D4E068039BB7
:103D60009842B8BF1846A3E701234A463946304671
:103D7000C04701309AD00135E368039A9B1AAB42E1
:103D8000F2DCEBE7002504F11909F5E7002BACD1D3
:103D9000037884F8423004F142056CE72A6D000094
:103DA0003B6D0000024B0A460146186802F04ABD0E
:103DB0003C00002038B5064C002305460846236029
:103DC00002F0BEFE431C02D1236803B12B6038BD54
:103DD000A80700200EB400B59CB01DAB0290069061
:103DE0006FF00041094807910491094953F8042BE9
:103DF00005910068019302A902F0A4FD029B002234
:103E00001A701CB05DF804EB03B070473C00002052
:103E10000802FFFF034611F8012B03F8012B002ACB
:103E2000F9D17047034613F8012B002AFBD1181A69
:103E30000138704710B56AB10139841810F8013B98
:103E400011F8012F934203D1A04201D0002BF5D1EC
:103E5000981A10BD1046FCE770B50139044602B946
:103E600070BD234611F8015F03F8015B561E2DB9A2
:103E70001444A342F4D003F8015BFAE71C4632462F
:103E8000EDE72DE9F0410F46904602F09FFB044616
:103E90000D46B8F1000F11D0C7F30A53C3F16B03FD
:103EA000002B0BDD1B0503F17F55002405F54015A4
:103EB00022462B46FEF768FE04460D46204629465C
:103EC000BDE8F081000000002DE9F04FA1B01F46D1
:103ED0000490002338460E4617921C9302F048F8CF
:103EE00080460068FFF79EFF4FF0000904464FF040
:103EF000000A1B961B9B1A780D2A30D8092A34D247
:103F0000002A3CD000230E931B9D2B78302B40F0D1
:103F1000AA806B78582B01D0782B65D10E9B01932A
:103F20001CAB009302971DAB874A04981BA901F0B4
:103F300048FD10F00704064605D0062C29D10135AE
:103F400000231B950E93179B002B40F094850E9B2E
:103F5000D3B148460AF1004121B0BDE8F08F2B2AC9
:103F600015D02D2A04D0202ACCD101331B93C1E7D0
:103F700001220E925A1C1B925B78002BC4D1179B16
:103F80001B96002B40F0758548465146E4E7002219
:103F9000EFE71C9A3AB135211EA802F00AFC1C99E1
:103FA000049802F07BF8013C042C06D8DFE804F00A
:103FB0000A0314170A00DDE91E9A3107C3D54AF037
:103FC000004AC0E7DDE91E931D9A23F4801302F234
:103FD000334243EA025AF0E7DFF870A1EDE76FF0F1
:103FE000004A4FF0FF39E8E71B9B5A1C1B925B7895
:103FF000302BF9D0002BA6D00123002507931B9B63
:104000000C930695AB460A221B980778A7F130035C
:10401000D9B2092929D92246D8F80010FFF70AFF9A
:10402000002832D000203B465C4602460590652BB6
:1040300001D0452B14D124B910B9079B002B9ED079
:1040400000241B9E731C1B9373782B2B79D02D2B74
:1040500071D04FF0000CA3F13007092F7CD91B96CB
:104060004FF0000E9AE00023C7E7BBF1080FD8BF5E
:10407000069900F10100DABF02FB0133069302FB4F
:1040800005350BF1010B1B90BEE71B9B1A191B9208
:104090001B5DBBF1000F37D002465C46A3F1300137
:1040A000092913D901210591C1E71B9B5A1C1B92B9
:1040B0005B780130302BF8D0A3F13102082A00F2EE
:1040C000DF841B9A0C92024600200446B3F1300EA6
:1040D00000F1010112D00A4400EB040C21460A272A
:1040E0008C4513D12118082904F10104044419DC7A
:1040F000069B0A2101FB03E3069300211B9B581C2E
:104100001B905B780846C9E75846D3E7082901F1B8
:10411000010103DC069B7B430693E1E71029D8BF2E
:104120007D43DDE7102CDCBF0A2101FB05E5E4E758
:104130000123059380E74FF0010CB31C1B93B37868
:1041400089E74FF0000CF8E74C6D00000000F07FAD
:104150001B9B5F1C1B975B78302BF9D0A3F13107B9
:10416000082F3FF67DAFA3F1300E1B9B08931B9BDE
:104170005F1C1B975B78A3F13008B8F1090F37D9A2
:1041800008997F1A082F44F61F6737DCBE45A8BF81
:10419000BE46BCF1000F01D0CEF1000E002C51D173
:1041A00000287FF4D0AE079A002A7FF4CCAE059A9F
:1041B000002A7FF4E4AE4E2B27D021DC492B7FF47C
:1041C000DEAE9F491BA801F02FFE00283FF4D7AEBA
:1041D0001B9B9C49013B1BA81B9301F025FE10B9BA
:1041E0001B9B01331B93DFF870A24FF00009AAE676
:1041F0000A2101FB0E3EAEF1300EB8E7BE46C8E71D
:10420000692BDED06E2B7FF4BAAE8F491BA801F06C
:104210000BFE00283FF4B3AE1B9B1B78282B0ED15E
:104220001EAA8A491BA801F013FE052807D11F9B6F
:10423000DDF8789043F0FF4A4AF4E00A83E6DFF8BD
:1042400020A2D2E7AEEB0203BBF1000F08BFA346EA
:1042500006980793102CA046A8BF4FF01008FEF751
:1042600019FC092C81468A4613DC079B002B3FF47E
:104270006AAE079B7ADD162B61DC754A02EBC30E32
:10428000DEE900014A465346FEF77EFC81468A4637
:1042900059E66F4B03EBC80353E91223FEF774FC96
:1042A000064628460F46FEF7F5FB02460B4630460B
:1042B0003946FEF7B3FA0F2C81468A46D5DD079BB7
:1042C000A4EB08089844B8F1000F40F3968018F06A
:1042D0000F030AD05E4901EBC3014A465346D1E9B8
:1042E0000001FEF751FC81468A4638F00F0873D072
:1042F000B8F59A7F47DD0024A3460C940694049AEF
:10430000DFF854A1222313604FF000090C9B002B0F
:104310003FF419AE1C99049801F0C0FE0699049868
:1043200001F0BCFE5946049801F0B8FE0C990498BF
:1043300001F0B4FE2146049801F0B0FE03E6079AAE
:10434000C4F125039342BADB414DC4F10F0405EBE0
:10435000C4014A465346D1E90001FEF715FC079B0C
:104360001C1B05EBC405D5E900238DE713F1160FDF
:10437000A5DB374AA2EBC302D2E9002348465146E7
:10438000FEF72CFD82E70023324E4FEA28184846FC
:1043900051461D46B8F1010F21DC0BB181468A461A
:1043A0002C4BAAF1547A03EBC5054A465346D5E98E
:1043B0000001FEF7E9FB284B0A460B4027498B42D8
:1043C000814698D8A1F580118B4286BFDFF894A072
:1043D0004FF0FF3902F1547A0023059376E018F08C
:1043E000010F06D006EBC503D3E90023FEF7CCFB93
:1043F000012301354FEA6808CCE7EDD0C8F1000889
:1044000018F00F020AD0124B03EBC2034846514684
:10441000D3E90023FEF7E2FC81468A465FEA2818CA
:10442000DAD0B8F11F0F1FDD0024A3460C940694C8
:10443000049A22234FF000094FF0000A136065E749
:104440001F6D0000C96E0000276D0000606D000048
:10445000606F0000386F00000000F07F0000A07C5B
:104460000000F8FFFFFFEF7F18F0100318BF6A236A
:10447000A14D0593484651460023B8F1000F00F3C3
:104480000E810BB181468A46059BBBB1CAF30A5324
:10449000C3F16B03002B514610DD1F2B40F30B8142
:1044A000342BDEBF203B4FF0FF3202FA03F34FF014
:1044B0000009CCBF4FF05C7A03EA010A0022002316
:1044C00048465146FEF7C8FD0028ADD1069B009333
:1044D0005A4623460C99049801F032FE0C900028AD
:1044E0003FF409AF079A079B002AC3F10003A8BF56
:1044F00000230F93002422EAE2731693A3460C9B39
:104500000498596801F096FD069000283FF4F7AE34
:104510000C9B1A69023203F10C0192000C30FEF779
:104520000DFF1EAB01931DAB00934A465346049802
:10453000CDE9089A02F0C0F81C9000283FF4DFAEE5
:104540000121049801F088FE834600283FF4D7AE8D
:104550001D9D1E9A002DABBF0F9B169B169E0F9F95
:10456000ACBFEF185E1B059BED1A1544634B013D74
:104570009D42C2F1360280F2B0805B1B1F2BA2EB82
:1045800003024FF0010100F39D8001FA03F30A9347
:10459000002507EB0208059B474516441E443B4691
:1045A000A8BF4346B342A8BF3346002BC2BFA8EB07
:1045B0000308F61AFF1A0F9BBBB159461A46049816
:1045C00001F0EAFE834600283FF499AE01461C9AAA
:1045D000049801F04AFE0D9000283FF490AE1C991B
:1045E000049801F05BFD0D9B1C93B8F1000F78DC83
:1045F000079B002B08DD169A0699049801F0CCFE63
:10460000069000283FF47BAE002E08DD3246069966
:10461000049801F00FFF069000283FF470AE002FC1
:1046200008DD59463A46049801F004FF8346002805
:104630003FF465AE069A1C99049801F069FF0446A0
:1046400000283FF45CAEC3680D930023C360594655
:1046500001F044FF002853DA0D9BE3B9B9F1000FD4
:1046600019D1CAF31303B3B92AF000431B0D1B057C
:10467000B3F1D66F0FD9636913B92369012B0ADD32
:1046800021460122049801F0D5FE5946044601F066
:1046900025FF002867DC059B002B71D13AE618F056
:1046A000010F04D0D5E90023FEF76EFA01234FEA8B
:1046B00068080835E1E64FF0FF3202FA03F303EA37
:1046C0000909FBE6C5F17F4505F57F0505F57B4545
:1046D000E23501FA05F50A915BE7012300250A930B
:1046E00057E742461C99049801F0A4FE1C9000284C
:1046F0007FF47EAF03E600BF786D000002FCFFFF91
:10470000D04640F088800D9ACAF313033AB3AE4AFC
:10471000934255D1059B4846E3B1AC4A0AEA0202EE
:10472000B2F1D46F4FF0FF3117D8120DC2F16B0305
:1047300001FA03F3984243D1A54B984502D10130C9
:104740003FF4DDADA14B08EA030303F5801A4FF0F7
:104750000009A0E74FF0FF33ECE70B46EAE77BBB2D
:10476000B9F1000F2CD10599984A5346F1B102EAEC
:104770000A01B1F1D66F19DCB1F15C7F7FF758AE59
:10478000944A0023CDE9143248465146DDE914230A
:10479000FEF7FAF981468A4600297FF4BBAD00286E
:1047A0007FF4B8AD049A22231360B3E51340A3F558
:1047B00080136FEA135A6FEA0A5A4FF0FF396AE71B
:1047C0009DB115EA080F3FF466AF0D9B059A484668
:1047D000514673B1FFF755FB02460B46DDE9080170
:1047E000FEF71CF881468A4655E70A9B13EA090F33
:1047F000E9E7FFF746FB02460B46DDE90801FEF755
:104800000BF80022002381468A46FEF725FC00288B
:104810007FF40EAE3FE75946204601F09CFF002290
:104820004FF0804306460F46FEF72AFC002874D05E
:104830000D9B002B46D0684B0022CDE90A23664F22
:104840000026624D654B08EA05059D4240F0CE808A
:10485000DDE90823A8F1547AC84640465146CDE91F
:10486000142301F0B3FE02460B46DDE90A01FEF710
:104870008BF942465346FDF7D1FF0B465349584A40
:104880001940914281465CD9099B02F154729342CE
:1048900003D1089B01333FF432ADDFF834A14FF070
:1048A000FF391C99049801F0F9FB0699049801F06E
:1048B000F5FB5946049801F0F1FB2146049801F0FC
:1048C000EDFB1CE6B9F1000F1AD1CAF31303F3B9DB
:1048D0000022414B30463946FEF7C8FBD0B930467E
:1048E000394600223F4BFEF74FF906460F4607F1C7
:1048F000004318961993DDE91823CDE90A23A0E7B0
:10490000B9F1010F03D1BAF1000F3FF491AD0022CC
:10491000354B92E70026334FE9E7324B30463946B4
:104920000022FEF731F90D9B06460F4633B901F11F
:10493000004310901193DDE91023DEE7CDE9106705
:10494000F9E703F1547A059B002BAAD12AF0004322
:104950001B0D1B059D42CDF820A0A2D13946304643
:10496000FEF7C2FBFEF7A6F80B4602463946304674
:10497000FDF752FF0D9B074688463BB9B9F1000F82
:1049800004D1089BC3F31306002E6CD00AA3D3E90D
:10499000002338464146FEF769FB00287FF4BAAC95
:1049A00007A3D3E9002338464146FEF77DFB0028E4
:1049B0003FF477AFAEE400BF9535A094FFFFDF3F33
:1049C00035E5AF350000E03FFFFF0F000000F07F4E
:1049D000FFFFEF7F000050390000F03F0000E07F54
:1049E000FFFF9F7C0000E03F0000F0BF059B23B36A
:1049F000B5F1D46F21D828A3D3E900233046394636
:104A0000FEF73EFBA0B139463046FEF795FB002885
:104A100008BF0120FEF73EF80D9B06460F46FBB986
:104A200001F1004312901393DDE91223CDE90A232B
:104A30000B9B03F1D6635B1B0B93DDE90801DDE9FA
:104A40000A8901F0C3FD02460B4640464946FEF77F
:104A50009BF8DDE90823FDF7E1FE81468A4672E70F
:104A6000CDE91267E0E70EA3D3E90023FEF7FEFAD3
:104A70009DE700230E93179A1B9B1360FFF767BAFD
:104A8000652B4FF000023FF453AB01211446059112
:104A9000FFF7CFBAAFF300800000C0FFFFFFDF4198
:104AA0009535A094FFFFCF3F074B084A10B41C6810
:104AB000236A002B08BF13460A46014620465DF8CC
:104AC000044BFFF701BA00BF3C000020A00000200B
:104AD0002DE9F0478046894692461E460F463D46E0
:104AE000089815F8014BFEF703FC2044437813F0B7
:104AF000080332D12D2C32D17C78BD1C0122002E2E
:104B00005DD0102E09D1302C07D12B7803F0DF03B4
:104B1000582B4FD16C7810260235002A14BF4FF065
:104B200000416FF000410027B1FBF6FC384606FB60
:104B30001C1EA4F13003092B17D81C46A64223DD06
:104B40007B1C07D084451CD301D1A64519DB00FB93
:104B50000640012715F8014BEBE72F46BFE72B2C4A
:104B600004BFBD1C7C781A46C9E7A4F14103192B88
:104B700001D8373CE2E7A4F16103192B04D8573C74
:104B8000DCE74FF0FF37E5E77B1C08D12223C8F8AC
:104B900000300846BAF1000F07D1BDE8F08702B136
:104BA0004042BAF1000FF8D00FB105F1FF39CAF851
:104BB0000090F2E73024002EAFD10826ADE7302C6C
:104BC000A3D00A26A9E70000084B37B51C68084D9A
:104BD000236A002B08BF2B46009313460A46014662
:104BE0002046FFF775FF03B030BD00BF3C0000203A
:104BF000A0000020F0B51D4B8BB005460C466E465C
:104C000003F1200C18685968374603C70833634519
:104C10003E46F7D118681B793B71931E222B3860F2
:104C20004FF0000304D923701C4620460BB0F0BDA2
:104C3000661EB5FBF2F00AAF02FB10553D44591C4D
:104C400015F8285C06F8015F054668B960542344EE
:104C50002246191B101B8142E7DD1178187802F8F3
:104C6000010B03F80119F4E70B46E2E7A06D000021
:104C7000FFF7C0BF49B1FF2A85BF8A2303600A70CE
:104C80004FF0FF3098BF01207047084670472DE96C
:104C9000F74F03690C69A3428046C0F28280013C51
:104CA00001F114074FEA840C00F1140657F8245060
:104CB00056F8240006EB0C03013507EB0C090193B1
:104CC000B0FBF5F595B34FF0000A3846B646D3462B
:104CD00050F8042B93B205FB03A34FEA134A9BB28F
:104CE000ABEB0303120CDEF800B005FB02A213FAD3
:104CF0008BF34FEA124A1FFA82FBDEF80020CBEB5F
:104D0000124202EB23429BB243EA024381454FEA3F
:104D1000224B4EF8043BDBD256F80C3033B9019BE2
:104D2000043B9E421A4630D3C8F81040404601F07A
:104D3000D5FB002825DB013530464FF0000C57F835
:104D4000042BD0F800E093B2ACEB0303120C13FA7F
:104D50008EF3C2EB1E4202EB23429BB243EA0243B4
:104D6000B9454FEA224C40F8043BE8D256F82420DB
:104D700006EB84032AB9043B9E421A460BD3C8F8BB
:104D80001040284603B0BDE8F08F1268043B002AAB
:104D9000CAD1013CC5E71268043B002AEFD1013CAF
:104DA000EAE70020EEE700002DE9F04F456A97B0F2
:104DB00016461F460446DDF88C80CDE902673DB9F2
:104DC0001020FEF799FA6062C0E901550560C560E0
:104DD000636A196851B15A684A60012393408B6035
:104DE000204601F05BF9636A00221A603B1EBBBFDC
:104DF00023F00043039300230122ACBFC8F8003026
:104E0000C8F80020B24BDDF80C8033EA08031BD150
:104E1000229A42F20F731360029B23B9C8F3130066
:104E2000002800F04F85249B53B9AA4B21E0AA4BE0
:104E300005930833249A1360059817B0BDE8F08FE6
:104E4000A44B05930333F5E7DDE902670022002355
:104E500030463946FEF700F9824660B1229A0123B6
:104E60001360249B002B00F02A859C4B249A13602E
:104E7000013B0593E0E714AB019315AB0093324679
:104E80003B46204601F018FCC8F30A558346002D26
:104E90007CD0C7F3130343F07F59B04649F440195F
:104EA000A5F2FF35CDF84CA000228D4B4046494677
:104EB000FDF7B2FC80A3D3E90023FDF765FE80A3D4
:104EC000D3E90023FDF7AAFC064628460F46FDF766
:104ED000F1FD7DA3D3E90023FDF756FE02460B4604
:104EE00030463946FDF79AFC06460F46FEF7FCF8B9
:104EF00000228246002330463946FEF7B7F848B113
:104F00005046FDF7D7FD32463B46FEF7A5F808B9F7
:104F10000AF1FF3ABAF1160F59D8724901EBCA01EA
:104F2000DDE90223D1E90001FEF7BEF8002850D0E8
:104F30000AF1FF3A00231293149B5D1BB5F101089F
:104F400049BFC5F10103002308934FF0000858BF83
:104F50000893BAF1000F3EDB0023D044CDF834A013
:104F60000993209B092B00F29080052BC4BF043BC2
:104F70002093209BA3F10203CCBF00250125032B26
:104F800000F28F80DFE803F07D7F3171DDE914539B
:104F90001D4405F23240202813DDC0F14000029B81
:104FA00008FA00F805F2124023FA00F048EA00007F
:104FB000FDF770FD01238046A1F1F879013D1393BF
:104FC00072E7029BC0F1200003FA00F0F0E7012332
:104FD000B1E71290B0E7089BA3EB0A030893CAF16C
:104FE0000003099300230D93BBE701230C93219B3E
:104FF000002B59DD06939946666A002272600422EE
:1050000002F114009842716870D9204601F012F83C
:10501000636A30601B680593B9F10E0F00F2EB80F4
:10502000002D00F0E8809DED027BBAF1000F8DEDC0
:10503000107B79DD2B4A0AF00F0302EBC30393EDDB
:10504000007B4FEA2A16F0068DED0A7B6AD5264BC7
:10505000DDE91001D3E90823FDF7C0FECDE9020127
:1050600006F00F060325204F51E001230C93219BEE
:10507000534403F1010906934B46012BB8BF0123AA
:10508000BAE70023B2E70023F0E7012500232093CD
:105090000C954FF0FF33069399460022122321927C
:1050A000AAE701230C93F4E70123069399461A46D5
:1050B000F5E700BFAFF3008061436F63A787D23F7E
:1050C000B3C8608B288AC63FFB799F501344D33FF7
:1050D0000000F07FCF6E0000C66E00007D6B000008
:1050E0000000F83F606F0000386F00000131716010
:1050F000520085E7F10708D5DDE90A01D7E9002369
:10510000FDF742FDCDE90A01013576100837002E82
:10511000F0D1DDE90A23DDE90201FDF75FFECDE90B
:1051200002011AE002259EE700F0A080CAF1000605
:105130009F4BA04F06F00F0203EBC203D3E90023FD
:10514000DDE91001FDF720FDCDE902013611002354
:105150000225002E7FD1002BE1D1129B002B00F005
:105160008780DDE902670022934B30463946FDF720
:105170007DFF00287CD0B9F1000F79D0069B002B71
:1051800035DD0AF1FF330A93394600228B4B304656
:10519000FDF7FAFCCDE90201069F01352846FDF72F
:1051A00089FCDDE90223FDF7EFFC0022844BFDF7CB
:1051B00035FB0546A1F15076002F5DD10022814BD1
:1051C000DDE90201FDF728FB2A463346CDE902015D
:1051D000FDF76AFF002840F088822A4606F1004366
:1051E000DDE90201FDF742FF002840F07C82DDE9A5
:1051F0001023CDE90223159B002BC0F25081BAF198
:105200000E0F00F34C816A4B03EBCA0393ED007B56
:10521000219B002B8DED067B80F2D880B9F1000F29
:1052200000F3D48040F05E820022664B51EC170BF5
:10523000FDF7AAFCDDE90223FDF72CFF4F464E46A1
:10524000002840F03482059B059A5D1C31231370C1
:105250000AF1010A2FE2F20705D5D7E90023FDF78D
:1052600093FC013501237610083772E7022574E7B5
:10527000CDF828A04F4691E74D4B03EBC70353E908
:1052800002010C9B002B47D002460B4600204E49E2
:10529000FDF7A4FD2A463346FDF7BEFACDE90E011F
:1052A000059DDDE90201FDF71FFF0646FDF702FC43
:1052B00002460B46DDE90201FDF7AEFA303605F88D
:1052C000016BDDE90E23CDE90201FDF7CFFE0028D9
:1052D00063D1DDE9022300203749FDF79DFADDE9BE
:1052E0000E23FDF7C3FE002840F0B780059BEB1AA4
:1052F0009F427FF77CAF0022304BDDE90E01FDF7C6
:1053000043FC0022CDE90E012C4BDDE90201FDF743
:105310003BFCCDE90201C4E733462A46FDF734FCE5
:10532000059BCDE90E01DD191E46DDE90201FDF701
:10533000DBFE0746FDF7BEFB303702460B46DDE9D4
:105340000201FDF769FA06F8017BAE42CDE90201E0
:105350004FF0000226D11C4BDDE90E01FDF75EFA8D
:1053600002460B46DDE90201FDF79EFE002874D1DE
:10537000DDE90E2300201449FDF74EFA02460B46E4
:10538000DDE90201FDF772FE00283FF430AF15F8A9
:10539000013C302B05F1FF3202D0DDF828A04AE0B5
:1053A0001546F4E7054BFDF7EFFBCDE90201BCE73D
:1053B000606F0000386F00000000F03F00002440E4
:1053C00000001C40000014400000E03FDDE90267DF
:1053D000059DDDE9062330463946FDF7FFFCFDF764
:1053E00083FE8046FDF766FBDDE90623FDF7CCFB77
:1053F00002460B463046394608F13006FDF70CFAF6
:1054000005F8016B059EAE1BB14502460B4639D12E
:10541000FDF704FADDE9062306460F46FDF744FED4
:10542000C8B9DDE9062330463946FDF715FE10B14F
:1054300018F0010F0FD15946204600F02FFE00232F
:10544000229A2B700AF101031360249B002B3FF476
:10545000F3AC1D60F0E4CDF828A015F8012C392A32
:1054600005F1FF3308D1059A9A4209D10A9B01330D
:105470000A933023137013461A7801321A708CE79E
:105480001D46EAE700229B4BFDF77EFB002200232E
:1054900006460F46FDF7E0FD00289AD0CBE70C9AB0
:1054A000002A00F08B80209A012A6EDC139A002AD1
:1054B00067D003F23343DDE90857089A01211A4403
:1054C00020460892984400F0C7FE0646002D0CDDE9
:1054D000B8F1000F09DD4545089A2B46A8BF4346A1
:1054E000D21A0892ED1AA8EB0308099BEBB10C9BAA
:1054F000002B67D08FB131463A46204600F04CFF72
:105500005A4601460646204600F0AFFE59460A902C
:10551000204600F0C3FD0A9B9B46099BDA1B04D082
:105520005946204600F038FF83460121204600F00E
:1055300093FE0D9B0746002B00F0CB811A460146D7
:10554000204600F029FF209B012B074640DC029BF0
:10555000002B39D1039BC3F31303002B36D1039BDC
:1055600023F000431B0D1B052BB1089B013308934F
:1055700008F10108012309930D9B002B2AD101207A
:1055800030E0149BC3F1360395E7099B09F1FF371F
:10559000BB42BFBF099B0997FA1A0D9BBBBF9B1863
:1055A0000D93DF1B0027B9F1000FB5BF089B089DC5
:1055B000A3EB09054B46B8BF00237EE7DDE908579A
:1055C0000C9E83E7099AABE70023D4E7029BD2E75E
:1055D000002309933B6907EB8303186900F0EEFD94
:1055E000C0F12000404410F01F0047D0C0F120035C
:1055F000042B3BDD089BC0F11C00034408930544C9
:105600008044089B002B05DD59461A46204600F0D1
:1056100011FF8346B8F1000F05DD394642462046AA
:1056200000F008FF0746129B53B33946584600F076
:1056300055FF002824DA002359460A22204600F0AC
:1056400044FD0C9B0AF1FF3A8346002B00F0488191
:10565000002331460A22204600F037FD069B002B2E
:1056600006464FDC209B022B4CDD11E0C9D0089A86
:105670001C331A4408921D449844C2E70346F6E7D7
:10568000B9F1000F38DC209B022B35DDCDF81890E6
:10569000069B63B939460522204600F016FD0146F7
:1056A0000746584600F01AFF00283FF7CCAD219B73
:1056B000059D6FEA030A4FF000093946204600F0C5
:1056C000EDFC002E3FF4B7AEB9F1000F05D0B145A7
:1056D00003D04946204600F0E1FC3146204600F068
:1056E000DDFCA8E600273E46E1E7DDF828A03E46BF
:1056F000A9E500BF000024400C9BCDF81890002BBA
:1057000000F0F580002D05DD31462A46204600F0E8
:1057100091FE0646099B002B4CD07168204600F094
:1057200089FC326902320546920006F10C010C3008
:10573000FDF704FE01222946204600F07BFE059B72
:105740000893029B03F00103B146099306463946CC
:105750005846FFF79CFA4946054600F1300858467E
:1057600000F0BCFE324602903946204600F0D0FEE2
:10577000C368024603BB01460A90584600F0AEFEDD
:105780000A9A0346114620460A9300F087FC0A9BBA
:10579000A3B9209A92B9099A82B9B8F1390F29D0E0
:1057A000029B002B01DD05F13108089B5D1C83F88D
:1057B000008082E73046C2E70123E3E7029A002A2D
:1057C00004DB24D1209A12BB099A02BB002BECDD2A
:1057D00059460122204600F02DFE3946834600F04E
:1057E0007DFE002803DCE0D118F0010FDDD0B8F118
:1057F000390FD8D1089B089A5D1C3923137015F80E
:10580000013C392B05F1FF324ED0013353E0089AA9
:10581000002B02F1010506DDB8F1390FEAD008F1DD
:105820000108089BC3E7059B069A05F8018CEB1A53
:10583000934221D0594600230A22204600F045FC1D
:10584000B14583464FF000034FF00A024946204617
:1058500005D100F03AFC81460646089577E700F04E
:1058600034FC3146814600230A22204600F02DFCFC
:105870000646F2E74FF0000959460122204600F0A3
:10588000D9FD3946834600F029FE0028B7DC02D155
:1058900018F0010FB3D115F8013C302B05F1FF32A0
:1058A0007FF40BAF1546F6E7059B934205D1059AA9
:1058B0000AF1010A31231370FFE615469FE7174BE3
:1058C000FFF7D7BA249B002B7FF4B1AA144BFFF744
:1058D000D0BA209B012B7FF73AAE0D9B09934EE681
:1058E000069B002B03DC209B022B3FF7D1AE059DCE
:1058F00039465846FFF7CBF900F1300805F8018B1F
:10590000059B069AEB1A9A42B4DD594600230A22F7
:10591000204600F0DAFB8346EAE700BF7C6B00001C
:10592000C66E0000F0B506694B119E4200F11404EA
:1059300030DD11F01F0104EB860604EB830208D171
:105940002146B2420B4611D252F8043B41F8043BC7
:10595000F7E754F82350C1F1200CCD400432234620
:10596000B24217460CD31D6005B104331A1BA34283
:105970004FEAA20208BF0023026108BF4361F0BDE5
:105980003F6807FA0CF73D4343F8045B52F8045BA9
:10599000CD40E5E72346E9E7A0F13003092B02D823
:1059A0002038C0B27047A0F16103052B01D84738F9
:1059B000F7E7A0F14103052B01D82738F1E70020D4
:1059C00070472DE9F04F8BB08A46029016980693E7
:1059D000904600F0CDFA036803931846FEF722FACA
:1059E000039B019003444FF0000B13F8013C079315
:1059F000DAF8003002331F4613F8010B30286CD060
:105A0000FFF7CAFF044600286AD1019A0399384675
:105A1000FEF710FA002866D1019BF85CFE18FFF72C
:105A2000BBFF002862D03346187830281F4603F1A8
:105A30000103F9D0FFF7B0FFB0FA80F56D093446E5
:105A40004FF0010B3A46164601323078FFF7A4FFBB
:105A50000028F8D1019A03993046FEF7EBF950B9C6
:105A600054B9019BF4182246164601323078FFF7EC
:105A700093FF0028F8D10CB1A41BA4003378502B5D
:105A800001D0702B40D173782B2B31D02D2B33D0FC
:105A9000711C4FF000090878FFF77EFF431EDBB250
:105AA000182B31D8A0F1100211F8010FFFF774FF85
:105AB000431EDBB2182B22D9B9F1000F00D052429D
:105AC0001444CAF800100DB3BBF1000F0CBF062739
:105AD000002738460BB0BDE8F08F0BF1010B8AE7C9
